{
  "_format": "hh-sol-artifact-1",
  "contractName": "RandomIpfsNft",
  "sourceName": "contracts/RandomIpfsNft.sol",
  "abi": [
    {
      "inputs": [
        {
          "internalType": "address",
          "name": "vrfCoordinatorV2",
          "type": "address"
        },
        {
          "internalType": "uint64",
          "name": "subscriptionId",
          "type": "uint64"
        },
        {
          "internalType": "bytes32",
          "name": "gasLane",
          "type": "bytes32"
        },
        {
          "internalType": "uint32",
          "name": "callbackGasLimit",
          "type": "uint32"
        },
        {
          "internalType": "string[3]",
          "name": "dogTokenUris",
          "type": "string[3]"
        },
        {
          "internalType": "uint256",
          "name": "mintFee",
          "type": "uint256"
        }
      ],
      "stateMutability": "nonpayable",
      "type": "constructor"
    },
    {
      "inputs": [],
      "name": "NeedMoreEthSent",
      "type": "error"
    },
    {
      "inputs": [
        {
          "internalType": "address",
          "name": "have",
          "type": "address"
        },
        {
          "internalType": "address",
          "name": "want",
          "type": "address"
        }
      ],
      "name": "OnlyCoordinatorCanFulfill",
      "type": "error"
    },
    {
      "inputs": [],
      "name": "RandomIpfsNft__RangeOutOfBounds",
      "type": "error"
    },
    {
      "inputs": [],
      "name": "TransferFailed",
      "type": "error"
    },
    {
      "anonymous": false,
      "inputs": [
        {
          "indexed": true,
          "internalType": "address",
          "name": "owner",
          "type": "address"
        },
        {
          "indexed": true,
          "internalType": "address",
          "name": "approved",
          "type": "address"
        },
        {
          "indexed": true,
          "internalType": "uint256",
          "name": "tokenId",
          "type": "uint256"
        }
      ],
      "name": "Approval",
      "type": "event"
    },
    {
      "anonymous": false,
      "inputs": [
        {
          "indexed": true,
          "internalType": "address",
          "name": "owner",
          "type": "address"
        },
        {
          "indexed": true,
          "internalType": "address",
          "name": "operator",
          "type": "address"
        },
        {
          "indexed": false,
          "internalType": "bool",
          "name": "approved",
          "type": "bool"
        }
      ],
      "name": "ApprovalForAll",
      "type": "event"
    },
    {
      "anonymous": false,
      "inputs": [
        {
          "indexed": false,
          "internalType": "enum RandomIpfsNft.Breed",
          "name": "dogBreed",
          "type": "uint8"
        },
        {
          "indexed": false,
          "internalType": "address",
          "name": "minter",
          "type": "address"
        }
      ],
      "name": "NftMinted",
      "type": "event"
    },
    {
      "anonymous": false,
      "inputs": [
        {
          "indexed": true,
          "internalType": "uint256",
          "name": "requestId",
          "type": "uint256"
        },
        {
          "indexed": false,
          "internalType": "address",
          "name": "requester",
          "type": "address"
        }
      ],
      "name": "NftRequested",
      "type": "event"
    },
    {
      "anonymous": false,
      "inputs": [
        {
          "indexed": true,
          "internalType": "address",
          "name": "previousOwner",
          "type": "address"
        },
        {
          "indexed": true,
          "internalType": "address",
          "name": "newOwner",
          "type": "address"
        }
      ],
      "name": "OwnershipTransferred",
      "type": "event"
    },
    {
      "anonymous": false,
      "inputs": [
        {
          "indexed": true,
          "internalType": "address",
          "name": "from",
          "type": "address"
        },
        {
          "indexed": true,
          "internalType": "address",
          "name": "to",
          "type": "address"
        },
        {
          "indexed": true,
          "internalType": "uint256",
          "name": "tokenId",
          "type": "uint256"
        }
      ],
      "name": "Transfer",
      "type": "event"
    },
    {
      "inputs": [],
      "name": "Max_Chance_Value",
      "outputs": [
        {
          "internalType": "uint256",
          "name": "",
          "type": "uint256"
        }
      ],
      "stateMutability": "view",
      "type": "function"
    },
    {
      "inputs": [
        {
          "internalType": "address",
          "name": "to",
          "type": "address"
        },
        {
          "internalType": "uint256",
          "name": "tokenId",
          "type": "uint256"
        }
      ],
      "name": "approve",
      "outputs": [],
      "stateMutability": "nonpayable",
      "type": "function"
    },
    {
      "inputs": [
        {
          "internalType": "address",
          "name": "owner",
          "type": "address"
        }
      ],
      "name": "balanceOf",
      "outputs": [
        {
          "internalType": "uint256",
          "name": "",
          "type": "uint256"
        }
      ],
      "stateMutability": "view",
      "type": "function"
    },
    {
      "inputs": [
        {
          "internalType": "uint256",
          "name": "_where",
          "type": "uint256"
        }
      ],
      "name": "getAddresses",
      "outputs": [
        {
          "internalType": "address",
          "name": "",
          "type": "address"
        }
      ],
      "stateMutability": "view",
      "type": "function"
    },
    {
      "inputs": [
        {
          "internalType": "uint256",
          "name": "tokenId",
          "type": "uint256"
        }
      ],
      "name": "getApproved",
      "outputs": [
        {
          "internalType": "address",
          "name": "",
          "type": "address"
        }
      ],
      "stateMutability": "view",
      "type": "function"
    },
    {
      "inputs": [
        {
          "internalType": "uint256",
          "name": "moddedRng",
          "type": "uint256"
        }
      ],
      "name": "getBreedFromModdedRng",
      "outputs": [
        {
          "internalType": "enum RandomIpfsNft.Breed",
          "name": "",
          "type": "uint8"
        }
      ],
      "stateMutability": "view",
      "type": "function"
    },
    {
      "inputs": [],
      "name": "getChanceArray",
      "outputs": [
        {
          "internalType": "uint256[3]",
          "name": "",
          "type": "uint256[3]"
        }
      ],
      "stateMutability": "view",
      "type": "function"
    },
    {
      "inputs": [],
      "name": "getDogTokenUris",
      "outputs": [
        {
          "internalType": "string[]",
          "name": "",
          "type": "string[]"
        }
      ],
      "stateMutability": "view",
      "type": "function"
    },
    {
      "inputs": [],
      "name": "getMintFee",
      "outputs": [
        {
          "internalType": "uint256",
          "name": "",
          "type": "uint256"
        }
      ],
      "stateMutability": "view",
      "type": "function"
    },
    {
      "inputs": [],
      "name": "i_mintFee",
      "outputs": [
        {
          "internalType": "uint256",
          "name": "",
          "type": "uint256"
        }
      ],
      "stateMutability": "view",
      "type": "function"
    },
    {
      "inputs": [
        {
          "internalType": "address",
          "name": "owner",
          "type": "address"
        },
        {
          "internalType": "address",
          "name": "operator",
          "type": "address"
        }
      ],
      "name": "isApprovedForAll",
      "outputs": [
        {
          "internalType": "bool",
          "name": "",
          "type": "bool"
        }
      ],
      "stateMutability": "view",
      "type": "function"
    },
    {
      "inputs": [],
      "name": "name",
      "outputs": [
        {
          "internalType": "string",
          "name": "",
          "type": "string"
        }
      ],
      "stateMutability": "view",
      "type": "function"
    },
    {
      "inputs": [],
      "name": "owner",
      "outputs": [
        {
          "internalType": "address",
          "name": "",
          "type": "address"
        }
      ],
      "stateMutability": "view",
      "type": "function"
    },
    {
      "inputs": [
        {
          "internalType": "uint256",
          "name": "tokenId",
          "type": "uint256"
        }
      ],
      "name": "ownerOf",
      "outputs": [
        {
          "internalType": "address",
          "name": "",
          "type": "address"
        }
      ],
      "stateMutability": "view",
      "type": "function"
    },
    {
      "inputs": [
        {
          "internalType": "uint256",
          "name": "requestId",
          "type": "uint256"
        },
        {
          "internalType": "uint256[]",
          "name": "randomWords",
          "type": "uint256[]"
        }
      ],
      "name": "rawFulfillRandomWords",
      "outputs": [],
      "stateMutability": "nonpayable",
      "type": "function"
    },
    {
      "inputs": [],
      "name": "renounceOwnership",
      "outputs": [],
      "stateMutability": "nonpayable",
      "type": "function"
    },
    {
      "inputs": [],
      "name": "requestNft",
      "outputs": [
        {
          "internalType": "uint256",
          "name": "requestId",
          "type": "uint256"
        }
      ],
      "stateMutability": "payable",
      "type": "function"
    },
    {
      "inputs": [
        {
          "internalType": "uint256",
          "name": "",
          "type": "uint256"
        }
      ],
      "name": "s_requestIdToSender",
      "outputs": [
        {
          "internalType": "address",
          "name": "",
          "type": "address"
        }
      ],
      "stateMutability": "view",
      "type": "function"
    },
    {
      "inputs": [],
      "name": "s_tokenCounter",
      "outputs": [
        {
          "internalType": "uint256",
          "name": "",
          "type": "uint256"
        }
      ],
      "stateMutability": "view",
      "type": "function"
    },
    {
      "inputs": [
        {
          "internalType": "address",
          "name": "from",
          "type": "address"
        },
        {
          "internalType": "address",
          "name": "to",
          "type": "address"
        },
        {
          "internalType": "uint256",
          "name": "tokenId",
          "type": "uint256"
        }
      ],
      "name": "safeTransferFrom",
      "outputs": [],
      "stateMutability": "nonpayable",
      "type": "function"
    },
    {
      "inputs": [
        {
          "internalType": "address",
          "name": "from",
          "type": "address"
        },
        {
          "internalType": "address",
          "name": "to",
          "type": "address"
        },
        {
          "internalType": "uint256",
          "name": "tokenId",
          "type": "uint256"
        },
        {
          "internalType": "bytes",
          "name": "data",
          "type": "bytes"
        }
      ],
      "name": "safeTransferFrom",
      "outputs": [],
      "stateMutability": "nonpayable",
      "type": "function"
    },
    {
      "inputs": [
        {
          "internalType": "address",
          "name": "operator",
          "type": "address"
        },
        {
          "internalType": "bool",
          "name": "approved",
          "type": "bool"
        }
      ],
      "name": "setApprovalForAll",
      "outputs": [],
      "stateMutability": "nonpayable",
      "type": "function"
    },
    {
      "inputs": [
        {
          "internalType": "bytes4",
          "name": "interfaceId",
          "type": "bytes4"
        }
      ],
      "name": "supportsInterface",
      "outputs": [
        {
          "internalType": "bool",
          "name": "",
          "type": "bool"
        }
      ],
      "stateMutability": "view",
      "type": "function"
    },
    {
      "inputs": [],
      "name": "symbol",
      "outputs": [
        {
          "internalType": "string",
          "name": "",
          "type": "string"
        }
      ],
      "stateMutability": "view",
      "type": "function"
    },
    {
      "inputs": [
        {
          "internalType": "uint256",
          "name": "tokenId",
          "type": "uint256"
        }
      ],
      "name": "tokenURI",
      "outputs": [
        {
          "internalType": "string",
          "name": "",
          "type": "string"
        }
      ],
      "stateMutability": "view",
      "type": "function"
    },
    {
      "inputs": [
        {
          "internalType": "address",
          "name": "from",
          "type": "address"
        },
        {
          "internalType": "address",
          "name": "to",
          "type": "address"
        },
        {
          "internalType": "uint256",
          "name": "tokenId",
          "type": "uint256"
        }
      ],
      "name": "transferFrom",
      "outputs": [],
      "stateMutability": "nonpayable",
      "type": "function"
    },
    {
      "inputs": [
        {
          "internalType": "address",
          "name": "newOwner",
          "type": "address"
        }
      ],
      "name": "transferOwnership",
      "outputs": [],
      "stateMutability": "nonpayable",
      "type": "function"
    },
    {
      "inputs": [],
      "name": "withdraw",
      "outputs": [],
      "stateMutability": "payable",
      "type": "function"
    }
  ],
  "bytecode": "0x61014060405260006009556064600a553480156200001c57600080fd5b506040516200458238038062004582833981810160405281019062000042919062000815565b6040518060400160405280600f81526020017f52616e646f6d2049504653204e465400000000000000000000000000000000008152506040518060400160405280600481526020017f494e465400000000000000000000000000000000000000000000000000000000815250878073ffffffffffffffffffffffffffffffffffffffff1660808173ffffffffffffffffffffffffffffffffffffffff1660601b81525050508160009080519060200190620000ff929190620002a8565b50806001908051906020019062000118929190620002a8565b5050506200013b6200012f620001da60201b60201c565b620001e260201b60201c565b8573ffffffffffffffffffffffffffffffffffffffff1660a08173ffffffffffffffffffffffffffffffffffffffff1660601b815250508467ffffffffffffffff1660c08167ffffffffffffffff1660c01b815250508360e081815250508263ffffffff166101008163ffffffff1660e01b8152505081600b906003620001c492919062000339565b5080610120818152505050505050505062000935565b600033905090565b6000600760009054906101000a900473ffffffffffffffffffffffffffffffffffffffff16905081600760006101000a81548173ffffffffffffffffffffffffffffffffffffffff021916908373ffffffffffffffffffffffffffffffffffffffff1602179055508173ffffffffffffffffffffffffffffffffffffffff168173ffffffffffffffffffffffffffffffffffffffff167f8be0079c531659141344cd1fd0a4f28419497f9722a3daafe3b4186f6b6457e060405160405180910390a35050565b828054620002b690620008ff565b90600052602060002090601f016020900481019282620002da576000855562000326565b82601f10620002f557805160ff191683800117855562000326565b8280016001018555821562000326579182015b828111156200032557825182559160200191906001019062000308565b5b509050620003359190620003a0565b5090565b8280548282559060005260206000209081019282156200038d579160200282015b828111156200038c5782518290805190602001906200037b929190620002a8565b50916020019190600101906200035a565b5b5090506200039c9190620003bf565b5090565b5b80821115620003bb576000816000905550600101620003a1565b5090565b5b80821115620003e35760008181620003d99190620003e7565b50600101620003c0565b5090565b508054620003f590620008ff565b6000825580601f106200040957506200042a565b601f016020900490600052602060002090810190620004299190620003a0565b5b50565b6000604051905090565b600080fd5b600080fd5b600073ffffffffffffffffffffffffffffffffffffffff82169050919050565b60006200046e8262000441565b9050919050565b620004808162000461565b81146200048c57600080fd5b50565b600081519050620004a08162000475565b92915050565b600067ffffffffffffffff82169050919050565b620004c581620004a6565b8114620004d157600080fd5b50565b600081519050620004e581620004ba565b92915050565b6000819050919050565b6200050081620004eb565b81146200050c57600080fd5b50565b6000815190506200052081620004f5565b92915050565b600063ffffffff82169050919050565b620005418162000526565b81146200054d57600080fd5b50565b600081519050620005618162000536565b92915050565b600080fd5b6000601f19601f8301169050919050565b7f4e487b7100000000000000000000000000000000000000000000000000000000600052604160045260246000fd5b620005b7826200056c565b810181811067ffffffffffffffff82111715620005d957620005d86200057d565b5b80604052505050565b6000620005ee6200042d565b9050620005fc8282620005ac565b919050565b600067ffffffffffffffff8211156200061f576200061e6200057d565b5b602082029050919050565b600080fd5b600080fd5b600067ffffffffffffffff8211156200065257620006516200057d565b5b6200065d826200056c565b9050602081019050919050565b60005b838110156200068a5780820151818401526020810190506200066d565b838111156200069a576000848401525b50505050565b6000620006b7620006b18462000634565b620005e2565b905082815260208101848484011115620006d657620006d56200062f565b5b620006e38482856200066a565b509392505050565b600082601f83011262000703576200070262000567565b5b815162000715848260208601620006a0565b91505092915050565b6000620007356200072f8462000601565b620005e2565b905080602084028301858111156200075257620007516200062a565b5b835b81811015620007a057805167ffffffffffffffff8111156200077b576200077a62000567565b5b8086016200078a8982620006eb565b8552602085019450505060208101905062000754565b5050509392505050565b600082601f830112620007c257620007c162000567565b5b6003620007d18482856200071e565b91505092915050565b6000819050919050565b620007ef81620007da565b8114620007fb57600080fd5b50565b6000815190506200080f81620007e4565b92915050565b60008060008060008060c0878903121562000835576200083462000437565b5b60006200084589828a016200048f565b96505060206200085889828a01620004d4565b95505060406200086b89828a016200050f565b94505060606200087e89828a0162000550565b935050608087015167ffffffffffffffff811115620008a257620008a16200043c565b5b620008b089828a01620007aa565b92505060a0620008c389828a01620007fe565b9150509295509295509295565b7f4e487b7100000000000000000000000000000000000000000000000000000000600052602260045260246000fd5b600060028204905060018216806200091857607f821691505b602082108114156200092f576200092e620008d0565b5b50919050565b60805160601c60a05160601c60c05160c01c60e0516101005160e01c61012051613bdc620009a660003960008181610a5c01528181610d60015261104e01526000611128015260006110e401526000611105015260006110a801526000818161099c01526109f00152613bdc6000f3fe6080604052600436106101b75760003560e01c80637a5caab3116100ec578063a51cccf31161008a578063c87b56dd11610064578063c87b56dd146105e2578063e985e9c51461061f578063ec4788cd1461065c578063f2fde38b14610699576101b7565b8063a51cccf31461055e578063aa1524911461059b578063b88d4fde146105b9576101b7565b80638da5cb5b116100c65780638da5cb5b146104a257806395d89b41146104cd578063a22cb465146104f8578063a36f573b14610521576101b7565b80637a5caab3146104215780637f501cc01461044c578063838ec5e914610477576101b7565b806323b872dd116101595780635dacf5f4116101335780635dacf5f4146103655780636352211e1461039057806370a08231146103cd578063715018a61461040a576101b7565b806323b872dd146103095780633ccfd60b1461033257806342842e0e1461033c576101b7565b8063095ea7b311610195578063095ea7b3146102615780630b21a83b1461028a5780631fe543e3146102b557806323895e79146102de576101b7565b806301ffc9a7146101bc57806306fdde03146101f9578063081812fc14610224575b600080fd5b3480156101c857600080fd5b506101e360048036038101906101de9190612621565b6106c2565b6040516101f09190612669565b60405180910390f35b34801561020557600080fd5b5061020e6107a4565b60405161021b919061271d565b60405180910390f35b34801561023057600080fd5b5061024b60048036038101906102469190612775565b610836565b60405161025891906127e3565b60405180910390f35b34801561026d57600080fd5b506102886004803603810190610283919061282a565b61087c565b005b34801561029657600080fd5b5061029f610994565b6040516102ac9190612879565b60405180910390f35b3480156102c157600080fd5b506102dc60048036038101906102d791906129dc565b61099a565b005b3480156102ea57600080fd5b506102f3610a5a565b6040516103009190612879565b60405180910390f35b34801561031557600080fd5b50610330600480360381019061032b9190612a38565b610a7e565b005b61033a610ade565b005b34801561034857600080fd5b50610363600480360381019061035e9190612a38565b610b92565b005b34801561037157600080fd5b5061037a610bb2565b6040516103879190612b36565b60405180910390f35b34801561039c57600080fd5b506103b760048036038101906103b29190612775565b610bde565b6040516103c491906127e3565b60405180910390f35b3480156103d957600080fd5b506103f460048036038101906103ef9190612b51565b610c90565b6040516104019190612879565b60405180910390f35b34801561041657600080fd5b5061041f610d48565b005b34801561042d57600080fd5b50610436610d5c565b6040516104439190612879565b60405180910390f35b34801561045857600080fd5b50610461610d84565b60405161046e9190612879565b60405180910390f35b34801561048357600080fd5b5061048c610d8a565b6040516104999190612c8a565b60405180910390f35b3480156104ae57600080fd5b506104b7610e63565b6040516104c491906127e3565b60405180910390f35b3480156104d957600080fd5b506104e2610e8d565b6040516104ef919061271d565b60405180910390f35b34801561050457600080fd5b5061051f600480360381019061051a9190612cd8565b610f1f565b005b34801561052d57600080fd5b5061054860048036038101906105439190612775565b610f35565b60405161055591906127e3565b60405180910390f35b34801561056a57600080fd5b5061058560048036038101906105809190612775565b610f68565b6040516105929190612d8f565b60405180910390f35b6105a361104a565b6040516105b09190612879565b60405180910390f35b3480156105c557600080fd5b506105e060048036038101906105db9190612e5f565b61124a565b005b3480156105ee57600080fd5b5061060960048036038101906106049190612775565b6112ac565b604051610616919061271d565b60405180910390f35b34801561062b57600080fd5b5061064660048036038101906106419190612ee2565b6113bf565b6040516106539190612669565b60405180910390f35b34801561066857600080fd5b50610683600480360381019061067e9190612775565b611453565b60405161069091906127e3565b60405180910390f35b3480156106a557600080fd5b506106c060048036038101906106bb9190612b51565b611490565b005b60007f80ac58cd000000000000000000000000000000000000000000000000000000007bffffffffffffffffffffffffffffffffffffffffffffffffffffffff1916827bffffffffffffffffffffffffffffffffffffffffffffffffffffffff1916148061078d57507f5b5e139f000000000000000000000000000000000000000000000000000000007bffffffffffffffffffffffffffffffffffffffffffffffffffffffff1916827bffffffffffffffffffffffffffffffffffffffffffffffffffffffff1916145b8061079d575061079c82611514565b5b9050919050565b6060600080546107b390612f51565b80601f01602080910402602001604051908101604052809291908181526020018280546107df90612f51565b801561082c5780601f106108015761010080835404028352916020019161082c565b820191906000526020600020905b81548152906001019060200180831161080f57829003601f168201915b5050505050905090565b60006108418261157e565b6004600083815260200190815260200160002060009054906101000a900473ffffffffffffffffffffffffffffffffffffffff169050919050565b600061088782610bde565b90508073ffffffffffffffffffffffffffffffffffffffff168373ffffffffffffffffffffffffffffffffffffffff1614156108f8576040517f08c379a00000000000000000000000000000000000000000000000000000000081526004016108ef90612ff5565b60405180910390fd5b8073ffffffffffffffffffffffffffffffffffffffff166109176115c9565b73ffffffffffffffffffffffffffffffffffffffff1614806109465750610945816109406115c9565b6113bf565b5b610985576040517f08c379a000000000000000000000000000000000000000000000000000000000815260040161097c90613087565b60405180910390fd5b61098f83836115d1565b505050565b60095481565b7f000000000000000000000000000000000000000000000000000000000000000073ffffffffffffffffffffffffffffffffffffffff163373ffffffffffffffffffffffffffffffffffffffff1614610a4c57337f00000000000000000000000000000000000000000000000000000000000000006040517f1cf993f4000000000000000000000000000000000000000000000000000000008152600401610a439291906130a7565b60405180910390fd5b610a56828261168a565b5050565b7f000000000000000000000000000000000000000000000000000000000000000081565b610a8f610a896115c9565b82611810565b610ace576040517f08c379a0000000000000000000000000000000000000000000000000000000008152600401610ac590613142565b60405180910390fd5b610ad98383836118a5565b505050565b610ae6611b0c565b600047905060003373ffffffffffffffffffffffffffffffffffffffff1682604051610b1190613193565b60006040518083038185875af1925050503d8060008114610b4e576040519150601f19603f3d011682016040523d82523d6000602084013e610b53565b606091505b5050905080610b8e576040517f90b8ec1800000000000000000000000000000000000000000000000000000000815260040160405180910390fd5b5050565b610bad8383836040518060200160405280600081525061124a565b505050565b610bba6124f0565b6040518060600160405280600a8152602001601e8152602001600a54815250905090565b6000806002600084815260200190815260200160002060009054906101000a900473ffffffffffffffffffffffffffffffffffffffff169050600073ffffffffffffffffffffffffffffffffffffffff168173ffffffffffffffffffffffffffffffffffffffff161415610c87576040517f08c379a0000000000000000000000000000000000000000000000000000000008152600401610c7e906131f4565b60405180910390fd5b80915050919050565b60008073ffffffffffffffffffffffffffffffffffffffff168273ffffffffffffffffffffffffffffffffffffffff161415610d01576040517f08c379a0000000000000000000000000000000000000000000000000000000008152600401610cf890613286565b60405180910390fd5b600360008373ffffffffffffffffffffffffffffffffffffffff1673ffffffffffffffffffffffffffffffffffffffff168152602001908152602001600020549050919050565b610d50611b0c565b610d5a6000611b8a565b565b60007f0000000000000000000000000000000000000000000000000000000000000000905090565b600a5481565b6060600b805480602002602001604051908101604052809291908181526020016000905b82821015610e5a578382906000526020600020018054610dcd90612f51565b80601f0160208091040260200160405190810160405280929190818152602001828054610df990612f51565b8015610e465780601f10610e1b57610100808354040283529160200191610e46565b820191906000526020600020905b815481529060010190602001808311610e2957829003601f168201915b505050505081526020019060010190610dae565b50505050905090565b6000600760009054906101000a900473ffffffffffffffffffffffffffffffffffffffff16905090565b606060018054610e9c90612f51565b80601f0160208091040260200160405190810160405280929190818152602001828054610ec890612f51565b8015610f155780601f10610eea57610100808354040283529160200191610f15565b820191906000526020600020905b815481529060010190602001808311610ef857829003601f168201915b5050505050905090565b610f31610f2a6115c9565b8383611c50565b5050565b60086020528060005260406000206000915054906101000a900473ffffffffffffffffffffffffffffffffffffffff1681565b600080600090506000610f79610bb2565b905060005b600381101561101257828510158015610fb85750818160038110610fa557610fa46132a6565b5b602002015183610fb59190613304565b85105b15610fda57806002811115610fd057610fcf612d18565b5b9350505050611045565b818160038110610fed57610fec6132a6565b5b602002015183610ffd9190613304565b9250808061100a9061335a565b915050610f7e565b506040517f12806c9d00000000000000000000000000000000000000000000000000000000815260040160405180910390fd5b919050565b60007f00000000000000000000000000000000000000000000000000000000000000003410156110a6576040517f393cded400000000000000000000000000000000000000000000000000000000815260040160405180910390fd5b7f000000000000000000000000000000000000000000000000000000000000000073ffffffffffffffffffffffffffffffffffffffff16635d3b1d307f00000000000000000000000000000000000000000000000000000000000000007f000000000000000000000000000000000000000000000000000000000000000060037f000000000000000000000000000000000000000000000000000000000000000060016040518663ffffffff1660e01b8152600401611169959493929190613456565b602060405180830381600087803b15801561118357600080fd5b505af1158015611197573d6000803e3d6000fd5b505050506040513d601f19601f820116820180604052508101906111bb91906134be565b9050336008600083815260200190815260200160002060006101000a81548173ffffffffffffffffffffffffffffffffffffffff021916908373ffffffffffffffffffffffffffffffffffffffff160217905550807ff873236e6cc0ecc5be1a9a35c95ee5b8d1ac4cc7bfef0cc5060391d6cc98e26b3360405161123f91906127e3565b60405180910390a290565b61125b6112556115c9565b83611810565b61129a576040517f08c379a000000000000000000000000000000000000000000000000000000000815260040161129190613142565b60405180910390fd5b6112a684848484611dbd565b50505050565b60606112b78261157e565b60006006600084815260200190815260200160002080546112d790612f51565b80601f016020809104026020016040519081016040528092919081815260200182805461130390612f51565b80156113505780601f1061132557610100808354040283529160200191611350565b820191906000526020600020905b81548152906001019060200180831161133357829003601f168201915b505050505090506000611361611e19565b90506000815114156113775781925050506113ba565b6000825111156113ac578082604051602001611394929190613527565b604051602081830303815290604052925050506113ba565b6113b584611e30565b925050505b919050565b6000600560008473ffffffffffffffffffffffffffffffffffffffff1673ffffffffffffffffffffffffffffffffffffffff16815260200190815260200160002060008373ffffffffffffffffffffffffffffffffffffffff1673ffffffffffffffffffffffffffffffffffffffff16815260200190815260200160002060009054906101000a900460ff16905092915050565b60006008600083815260200190815260200160002060009054906101000a900473ffffffffffffffffffffffffffffffffffffffff169050919050565b611498611b0c565b600073ffffffffffffffffffffffffffffffffffffffff168173ffffffffffffffffffffffffffffffffffffffff161415611508576040517f08c379a00000000000000000000000000000000000000000000000000000000081526004016114ff906135bd565b60405180910390fd5b61151181611b8a565b50565b60007f01ffc9a7000000000000000000000000000000000000000000000000000000007bffffffffffffffffffffffffffffffffffffffffffffffffffffffff1916827bffffffffffffffffffffffffffffffffffffffffffffffffffffffff1916149050919050565b61158781611e98565b6115c6576040517f08c379a00000000000000000000000000000000000000000000000000000000081526004016115bd906131f4565b60405180910390fd5b50565b600033905090565b816004600083815260200190815260200160002060006101000a81548173ffffffffffffffffffffffffffffffffffffffff021916908373ffffffffffffffffffffffffffffffffffffffff160217905550808273ffffffffffffffffffffffffffffffffffffffff1661164483610bde565b73ffffffffffffffffffffffffffffffffffffffff167f8c5be1e5ebec7d5bd14f71427d1e84f3dd0314c0f7b2291e5b200ac8c7c3b92560405160405180910390a45050565b60006008600084815260200190815260200160002060009054906101000a900473ffffffffffffffffffffffffffffffffffffffff169050600060095490506000600a54846000815181106116e2576116e16132a6565b5b60200260200101516116f4919061360c565b9050600061170182610f68565b905061170d8484611f04565b6117cf83600b83600281111561172657611725612d18565b5b81548110611737576117366132a6565b5b90600052602060002001805461174c90612f51565b80601f016020809104026020016040519081016040528092919081815260200182805461177890612f51565b80156117c55780601f1061179a576101008083540402835291602001916117c5565b820191906000526020600020905b8154815290600101906020018083116117a857829003601f168201915b5050505050611f22565b7f8a269f26b688e110e9cbd887d163dab35cae678fa353a0292de532c0cac1ecdc818560405161180092919061363d565b60405180910390a1505050505050565b60008061181c83610bde565b90508073ffffffffffffffffffffffffffffffffffffffff168473ffffffffffffffffffffffffffffffffffffffff16148061185e575061185d81856113bf565b5b8061189c57508373ffffffffffffffffffffffffffffffffffffffff1661188484610836565b73ffffffffffffffffffffffffffffffffffffffff16145b91505092915050565b8273ffffffffffffffffffffffffffffffffffffffff166118c582610bde565b73ffffffffffffffffffffffffffffffffffffffff161461191b576040517f08c379a0000000000000000000000000000000000000000000000000000000008152600401611912906136d8565b60405180910390fd5b600073ffffffffffffffffffffffffffffffffffffffff168273ffffffffffffffffffffffffffffffffffffffff16141561198b576040517f08c379a00000000000000000000000000000000000000000000000000000000081526004016119829061376a565b60405180910390fd5b611996838383611f96565b6119a16000826115d1565b6001600360008573ffffffffffffffffffffffffffffffffffffffff1673ffffffffffffffffffffffffffffffffffffffff16815260200190815260200160002060008282546119f1919061378a565b925050819055506001600360008473ffffffffffffffffffffffffffffffffffffffff1673ffffffffffffffffffffffffffffffffffffffff1681526020019081526020016000206000828254611a489190613304565b92505081905550816002600083815260200190815260200160002060006101000a81548173ffffffffffffffffffffffffffffffffffffffff021916908373ffffffffffffffffffffffffffffffffffffffff160217905550808273ffffffffffffffffffffffffffffffffffffffff168473ffffffffffffffffffffffffffffffffffffffff167fddf252ad1be2c89b69c2b068fc378daa952ba7f163c4a11628f55a4df523b3ef60405160405180910390a4611b07838383611f9b565b505050565b611b146115c9565b73ffffffffffffffffffffffffffffffffffffffff16611b32610e63565b73ffffffffffffffffffffffffffffffffffffffff1614611b88576040517f08c379a0000000000000000000000000000000000000000000000000000000008152600401611b7f9061380a565b60405180910390fd5b565b6000600760009054906101000a900473ffffffffffffffffffffffffffffffffffffffff16905081600760006101000a81548173ffffffffffffffffffffffffffffffffffffffff021916908373ffffffffffffffffffffffffffffffffffffffff1602179055508173ffffffffffffffffffffffffffffffffffffffff168173ffffffffffffffffffffffffffffffffffffffff167f8be0079c531659141344cd1fd0a4f28419497f9722a3daafe3b4186f6b6457e060405160405180910390a35050565b8173ffffffffffffffffffffffffffffffffffffffff168373ffffffffffffffffffffffffffffffffffffffff161415611cbf576040517f08c379a0000000000000000000000000000000000000000000000000000000008152600401611cb690613876565b60405180910390fd5b80600560008573ffffffffffffffffffffffffffffffffffffffff1673ffffffffffffffffffffffffffffffffffffffff16815260200190815260200160002060008473ffffffffffffffffffffffffffffffffffffffff1673ffffffffffffffffffffffffffffffffffffffff16815260200190815260200160002060006101000a81548160ff0219169083151502179055508173ffffffffffffffffffffffffffffffffffffffff168373ffffffffffffffffffffffffffffffffffffffff167f17307eab39ab6107e8899845ad3d59bd9653f200f220920489ca2b5937696c3183604051611db09190612669565b60405180910390a3505050565b611dc88484846118a5565b611dd484848484611fa0565b611e13576040517f08c379a0000000000000000000000000000000000000000000000000000000008152600401611e0a90613908565b60405180910390fd5b50505050565b606060405180602001604052806000815250905090565b6060611e3b8261157e565b6000611e45611e19565b90506000815111611e655760405180602001604052806000815250611e90565b80611e6f84612137565b604051602001611e80929190613527565b6040516020818303038152906040525b915050919050565b60008073ffffffffffffffffffffffffffffffffffffffff166002600084815260200190815260200160002060009054906101000a900473ffffffffffffffffffffffffffffffffffffffff1673ffffffffffffffffffffffffffffffffffffffff1614159050919050565b611f1e828260405180602001604052806000815250612298565b5050565b611f2b82611e98565b611f6a576040517f08c379a0000000000000000000000000000000000000000000000000000000008152600401611f619061399a565b60405180910390fd5b80600660008481526020019081526020016000209080519060200190611f91929190612512565b505050565b505050565b505050565b6000611fc18473ffffffffffffffffffffffffffffffffffffffff166122f3565b1561212a578373ffffffffffffffffffffffffffffffffffffffff1663150b7a02611fea6115c9565b8786866040518563ffffffff1660e01b815260040161200c9493929190613a0f565b602060405180830381600087803b15801561202657600080fd5b505af192505050801561205757506040513d601f19601f820116820180604052508101906120549190613a70565b60015b6120da573d8060008114612087576040519150601f19603f3d011682016040523d82523d6000602084013e61208c565b606091505b506000815114156120d2576040517f08c379a00000000000000000000000000000000000000000000000000000000081526004016120c990613908565b60405180910390fd5b805181602001fd5b63150b7a0260e01b7bffffffffffffffffffffffffffffffffffffffffffffffffffffffff1916817bffffffffffffffffffffffffffffffffffffffffffffffffffffffff19161491505061212f565b600190505b949350505050565b6060600082141561217f576040518060400160405280600181526020017f30000000000000000000000000000000000000000000000000000000000000008152509050612293565b600082905060005b600082146121b157808061219a9061335a565b915050600a826121aa9190613a9d565b9150612187565b60008167ffffffffffffffff8111156121cd576121cc612899565b5b6040519080825280601f01601f1916602001820160405280156121ff5781602001600182028036833780820191505090505b5090505b6000851461228c57600182612218919061378a565b9150600a85612227919061360c565b60306122339190613304565b60f81b818381518110612249576122486132a6565b5b60200101907effffffffffffffffffffffffffffffffffffffffffffffffffffffffffffff1916908160001a905350600a856122859190613a9d565b9450612203565b8093505050505b919050565b6122a28383612316565b6122af6000848484611fa0565b6122ee576040517f08c379a00000000000000000000000000000000000000000000000000000000081526004016122e590613908565b60405180910390fd5b505050565b6000808273ffffffffffffffffffffffffffffffffffffffff163b119050919050565b600073ffffffffffffffffffffffffffffffffffffffff168273ffffffffffffffffffffffffffffffffffffffff161415612386576040517f08c379a000000000000000000000000000000000000000000000000000000000815260040161237d90613b1a565b60405180910390fd5b61238f81611e98565b156123cf576040517f08c379a00000000000000000000000000000000000000000000000000000000081526004016123c690613b86565b60405180910390fd5b6123db60008383611f96565b6001600360008473ffffffffffffffffffffffffffffffffffffffff1673ffffffffffffffffffffffffffffffffffffffff168152602001908152602001600020600082825461242b9190613304565b92505081905550816002600083815260200190815260200160002060006101000a81548173ffffffffffffffffffffffffffffffffffffffff021916908373ffffffffffffffffffffffffffffffffffffffff160217905550808273ffffffffffffffffffffffffffffffffffffffff16600073ffffffffffffffffffffffffffffffffffffffff167fddf252ad1be2c89b69c2b068fc378daa952ba7f163c4a11628f55a4df523b3ef60405160405180910390a46124ec60008383611f9b565b5050565b6040518060600160405280600390602082028036833780820191505090505090565b82805461251e90612f51565b90600052602060002090601f0160209004810192826125405760008555612587565b82601f1061255957805160ff1916838001178555612587565b82800160010185558215612587579182015b8281111561258657825182559160200191906001019061256b565b5b5090506125949190612598565b5090565b5b808211156125b1576000816000905550600101612599565b5090565b6000604051905090565b600080fd5b600080fd5b60007fffffffff0000000000000000000000000000000000000000000000000000000082169050919050565b6125fe816125c9565b811461260957600080fd5b50565b60008135905061261b816125f5565b92915050565b600060208284031215612637576126366125bf565b5b60006126458482850161260c565b91505092915050565b60008115159050919050565b6126638161264e565b82525050565b600060208201905061267e600083018461265a565b92915050565b600081519050919050565b600082825260208201905092915050565b60005b838110156126be5780820151818401526020810190506126a3565b838111156126cd576000848401525b50505050565b6000601f19601f8301169050919050565b60006126ef82612684565b6126f9818561268f565b93506127098185602086016126a0565b612712816126d3565b840191505092915050565b6000602082019050818103600083015261273781846126e4565b905092915050565b6000819050919050565b6127528161273f565b811461275d57600080fd5b50565b60008135905061276f81612749565b92915050565b60006020828403121561278b5761278a6125bf565b5b600061279984828501612760565b91505092915050565b600073ffffffffffffffffffffffffffffffffffffffff82169050919050565b60006127cd826127a2565b9050919050565b6127dd816127c2565b82525050565b60006020820190506127f860008301846127d4565b92915050565b612807816127c2565b811461281257600080fd5b50565b600081359050612824816127fe565b92915050565b60008060408385031215612841576128406125bf565b5b600061284f85828601612815565b925050602061286085828601612760565b9150509250929050565b6128738161273f565b82525050565b600060208201905061288e600083018461286a565b92915050565b600080fd5b7f4e487b7100000000000000000000000000000000000000000000000000000000600052604160045260246000fd5b6128d1826126d3565b810181811067ffffffffffffffff821117156128f0576128ef612899565b5b80604052505050565b60006129036125b5565b905061290f82826128c8565b919050565b600067ffffffffffffffff82111561292f5761292e612899565b5b602082029050602081019050919050565b600080fd5b600061295861295384612914565b6128f9565b9050808382526020820190506020840283018581111561297b5761297a612940565b5b835b818110156129a457806129908882612760565b84526020840193505060208101905061297d565b5050509392505050565b600082601f8301126129c3576129c2612894565b5b81356129d3848260208601612945565b91505092915050565b600080604083850312156129f3576129f26125bf565b5b6000612a0185828601612760565b925050602083013567ffffffffffffffff811115612a2257612a216125c4565b5b612a2e858286016129ae565b9150509250929050565b600080600060608486031215612a5157612a506125bf565b5b6000612a5f86828701612815565b9350506020612a7086828701612815565b9250506040612a8186828701612760565b9150509250925092565b600060039050919050565b600081905092915050565b6000819050919050565b612ab48161273f565b82525050565b6000612ac68383612aab565b60208301905092915050565b6000602082019050919050565b612ae881612a8b565b612af28184612a96565b9250612afd82612aa1565b8060005b83811015612b2e578151612b158782612aba565b9650612b2083612ad2565b925050600181019050612b01565b505050505050565b6000606082019050612b4b6000830184612adf565b92915050565b600060208284031215612b6757612b666125bf565b5b6000612b7584828501612815565b91505092915050565b600081519050919050565b600082825260208201905092915050565b6000819050602082019050919050565b600082825260208201905092915050565b6000612bc682612684565b612bd08185612baa565b9350612be08185602086016126a0565b612be9816126d3565b840191505092915050565b6000612c008383612bbb565b905092915050565b6000602082019050919050565b6000612c2082612b7e565b612c2a8185612b89565b935083602082028501612c3c85612b9a565b8060005b85811015612c785784840389528151612c598582612bf4565b9450612c6483612c08565b925060208a01995050600181019050612c40565b50829750879550505050505092915050565b60006020820190508181036000830152612ca48184612c15565b905092915050565b612cb58161264e565b8114612cc057600080fd5b50565b600081359050612cd281612cac565b92915050565b60008060408385031215612cef57612cee6125bf565b5b6000612cfd85828601612815565b9250506020612d0e85828601612cc3565b9150509250929050565b7f4e487b7100000000000000000000000000000000000000000000000000000000600052602160045260246000fd5b60038110612d5857612d57612d18565b5b50565b6000819050612d6982612d47565b919050565b6000612d7982612d5b565b9050919050565b612d8981612d6e565b82525050565b6000602082019050612da46000830184612d80565b92915050565b600080fd5b600067ffffffffffffffff821115612dca57612dc9612899565b5b612dd3826126d3565b9050602081019050919050565b82818337600083830152505050565b6000612e02612dfd84612daf565b6128f9565b905082815260208101848484011115612e1e57612e1d612daa565b5b612e29848285612de0565b509392505050565b600082601f830112612e4657612e45612894565b5b8135612e56848260208601612def565b91505092915050565b60008060008060808587031215612e7957612e786125bf565b5b6000612e8787828801612815565b9450506020612e9887828801612815565b9350506040612ea987828801612760565b925050606085013567ffffffffffffffff811115612eca57612ec96125c4565b5b612ed687828801612e31565b91505092959194509250565b60008060408385031215612ef957612ef86125bf565b5b6000612f0785828601612815565b9250506020612f1885828601612815565b9150509250929050565b7f4e487b7100000000000000000000000000000000000000000000000000000000600052602260045260246000fd5b60006002820490506001821680612f6957607f821691505b60208210811415612f7d57612f7c612f22565b5b50919050565b7f4552433732313a20617070726f76616c20746f2063757272656e74206f776e6560008201527f7200000000000000000000000000000000000000000000000000000000000000602082015250565b6000612fdf60218361268f565b9150612fea82612f83565b604082019050919050565b6000602082019050818103600083015261300e81612fd2565b9050919050565b7f4552433732313a20617070726f76652063616c6c6572206973206e6f7420746f60008201527f6b656e206f776e6572206e6f7220617070726f76656420666f7220616c6c0000602082015250565b6000613071603e8361268f565b915061307c82613015565b604082019050919050565b600060208201905081810360008301526130a081613064565b9050919050565b60006040820190506130bc60008301856127d4565b6130c960208301846127d4565b9392505050565b7f4552433732313a2063616c6c6572206973206e6f7420746f6b656e206f776e6560008201527f72206e6f7220617070726f766564000000000000000000000000000000000000602082015250565b600061312c602e8361268f565b9150613137826130d0565b604082019050919050565b6000602082019050818103600083015261315b8161311f565b9050919050565b600081905092915050565b50565b600061317d600083613162565b91506131888261316d565b600082019050919050565b600061319e82613170565b9150819050919050565b7f4552433732313a20696e76616c696420746f6b656e2049440000000000000000600082015250565b60006131de60188361268f565b91506131e9826131a8565b602082019050919050565b6000602082019050818103600083015261320d816131d1565b9050919050565b7f4552433732313a2061646472657373207a65726f206973206e6f74206120766160008201527f6c6964206f776e65720000000000000000000000000000000000000000000000602082015250565b600061327060298361268f565b915061327b82613214565b604082019050919050565b6000602082019050818103600083015261329f81613263565b9050919050565b7f4e487b7100000000000000000000000000000000000000000000000000000000600052603260045260246000fd5b7f4e487b7100000000000000000000000000000000000000000000000000000000600052601160045260246000fd5b600061330f8261273f565b915061331a8361273f565b9250827fffffffffffffffffffffffffffffffffffffffffffffffffffffffffffffffff0382111561334f5761334e6132d5565b5b828201905092915050565b60006133658261273f565b91507fffffffffffffffffffffffffffffffffffffffffffffffffffffffffffffffff821415613398576133976132d5565b5b600182019050919050565b6000819050919050565b6133b6816133a3565b82525050565b600067ffffffffffffffff82169050919050565b6133d9816133bc565b82525050565b600061ffff82169050919050565b6133f6816133df565b82525050565b600063ffffffff82169050919050565b613415816133fc565b82525050565b6000819050919050565b600061344061343b613436846133df565b61341b565b6133fc565b9050919050565b61345081613425565b82525050565b600060a08201905061346b60008301886133ad565b61347860208301876133d0565b61348560408301866133ed565b613492606083018561340c565b61349f6080830184613447565b9695505050505050565b6000815190506134b881612749565b92915050565b6000602082840312156134d4576134d36125bf565b5b60006134e2848285016134a9565b91505092915050565b600081905092915050565b600061350182612684565b61350b81856134eb565b935061351b8185602086016126a0565b80840191505092915050565b600061353382856134f6565b915061353f82846134f6565b91508190509392505050565b7f4f776e61626c653a206e6577206f776e657220697320746865207a65726f206160008201527f6464726573730000000000000000000000000000000000000000000000000000602082015250565b60006135a760268361268f565b91506135b28261354b565b604082019050919050565b600060208201905081810360008301526135d68161359a565b9050919050565b7f4e487b7100000000000000000000000000000000000000000000000000000000600052601260045260246000fd5b60006136178261273f565b91506136228361273f565b925082613632576136316135dd565b5b828206905092915050565b60006040820190506136526000830185612d80565b61365f60208301846127d4565b9392505050565b7f4552433732313a207472616e736665722066726f6d20696e636f72726563742060008201527f6f776e6572000000000000000000000000000000000000000000000000000000602082015250565b60006136c260258361268f565b91506136cd82613666565b604082019050919050565b600060208201905081810360008301526136f1816136b5565b9050919050565b7f4552433732313a207472616e7366657220746f20746865207a65726f2061646460008201527f7265737300000000000000000000000000000000000000000000000000000000602082015250565b600061375460248361268f565b915061375f826136f8565b604082019050919050565b6000602082019050818103600083015261378381613747565b9050919050565b60006137958261273f565b91506137a08361273f565b9250828210156137b3576137b26132d5565b5b828203905092915050565b7f4f776e61626c653a2063616c6c6572206973206e6f7420746865206f776e6572600082015250565b60006137f460208361268f565b91506137ff826137be565b602082019050919050565b60006020820190508181036000830152613823816137e7565b9050919050565b7f4552433732313a20617070726f766520746f2063616c6c657200000000000000600082015250565b600061386060198361268f565b915061386b8261382a565b602082019050919050565b6000602082019050818103600083015261388f81613853565b9050919050565b7f4552433732313a207472616e7366657220746f206e6f6e20455243373231526560008201527f63656976657220696d706c656d656e7465720000000000000000000000000000602082015250565b60006138f260328361268f565b91506138fd82613896565b604082019050919050565b60006020820190508181036000830152613921816138e5565b9050919050565b7f45524337323155524953746f726167653a2055524920736574206f66206e6f6e60008201527f6578697374656e7420746f6b656e000000000000000000000000000000000000602082015250565b6000613984602e8361268f565b915061398f82613928565b604082019050919050565b600060208201905081810360008301526139b381613977565b9050919050565b600081519050919050565b600082825260208201905092915050565b60006139e1826139ba565b6139eb81856139c5565b93506139fb8185602086016126a0565b613a04816126d3565b840191505092915050565b6000608082019050613a2460008301876127d4565b613a3160208301866127d4565b613a3e604083018561286a565b8181036060830152613a5081846139d6565b905095945050505050565b600081519050613a6a816125f5565b92915050565b600060208284031215613a8657613a856125bf565b5b6000613a9484828501613a5b565b91505092915050565b6000613aa88261273f565b9150613ab38361273f565b925082613ac357613ac26135dd565b5b828204905092915050565b7f4552433732313a206d696e7420746f20746865207a65726f2061646472657373600082015250565b6000613b0460208361268f565b9150613b0f82613ace565b602082019050919050565b60006020820190508181036000830152613b3381613af7565b9050919050565b7f4552433732313a20746f6b656e20616c7265616479206d696e74656400000000600082015250565b6000613b70601c8361268f565b9150613b7b82613b3a565b602082019050919050565b60006020820190508181036000830152613b9f81613b63565b905091905056fea264697066735822122091a5b1d16e6484dee837b182649dc7e89098719c9f8567e7f2601f43ee73168064736f6c63430008080033",
  "linkReferences": {},
  "deployedLinkReferences": {}
}