{
  "address": "0x647Ae6ae19b191C23e1BC6BE96788715b8691074",
  "abi": [
    {
      "inputs": [
        {
          "internalType": "address",
          "name": "vrfCoordinatorV2",
          "type": "address"
        },
        {
          "internalType": "uint64",
          "name": "subscriptionId",
          "type": "uint64"
        },
        {
          "internalType": "bytes32",
          "name": "gasLane",
          "type": "bytes32"
        },
        {
          "internalType": "uint32",
          "name": "callbackGasLimit",
          "type": "uint32"
        },
        {
          "internalType": "string[3]",
          "name": "dogTokenUris",
          "type": "string[3]"
        },
        {
          "internalType": "uint256",
          "name": "mintFee",
          "type": "uint256"
        }
      ],
      "stateMutability": "nonpayable",
      "type": "constructor"
    },
    {
      "inputs": [],
      "name": "NeedMoreEthSent",
      "type": "error"
    },
    {
      "inputs": [
        {
          "internalType": "address",
          "name": "have",
          "type": "address"
        },
        {
          "internalType": "address",
          "name": "want",
          "type": "address"
        }
      ],
      "name": "OnlyCoordinatorCanFulfill",
      "type": "error"
    },
    {
      "inputs": [],
      "name": "RandomIpfsNft__RangeOutOfBounds",
      "type": "error"
    },
    {
      "inputs": [],
      "name": "TransferFailed",
      "type": "error"
    },
    {
      "anonymous": false,
      "inputs": [
        {
          "indexed": true,
          "internalType": "address",
          "name": "owner",
          "type": "address"
        },
        {
          "indexed": true,
          "internalType": "address",
          "name": "approved",
          "type": "address"
        },
        {
          "indexed": true,
          "internalType": "uint256",
          "name": "tokenId",
          "type": "uint256"
        }
      ],
      "name": "Approval",
      "type": "event"
    },
    {
      "anonymous": false,
      "inputs": [
        {
          "indexed": true,
          "internalType": "address",
          "name": "owner",
          "type": "address"
        },
        {
          "indexed": true,
          "internalType": "address",
          "name": "operator",
          "type": "address"
        },
        {
          "indexed": false,
          "internalType": "bool",
          "name": "approved",
          "type": "bool"
        }
      ],
      "name": "ApprovalForAll",
      "type": "event"
    },
    {
      "anonymous": false,
      "inputs": [
        {
          "indexed": false,
          "internalType": "enum RandomIpfsNft.Breed",
          "name": "dogBreed",
          "type": "uint8"
        },
        {
          "indexed": false,
          "internalType": "address",
          "name": "minter",
          "type": "address"
        }
      ],
      "name": "NftMinted",
      "type": "event"
    },
    {
      "anonymous": false,
      "inputs": [
        {
          "indexed": true,
          "internalType": "uint256",
          "name": "requestId",
          "type": "uint256"
        },
        {
          "indexed": false,
          "internalType": "address",
          "name": "requester",
          "type": "address"
        }
      ],
      "name": "NftRequested",
      "type": "event"
    },
    {
      "anonymous": false,
      "inputs": [
        {
          "indexed": true,
          "internalType": "address",
          "name": "previousOwner",
          "type": "address"
        },
        {
          "indexed": true,
          "internalType": "address",
          "name": "newOwner",
          "type": "address"
        }
      ],
      "name": "OwnershipTransferred",
      "type": "event"
    },
    {
      "anonymous": false,
      "inputs": [
        {
          "indexed": true,
          "internalType": "address",
          "name": "from",
          "type": "address"
        },
        {
          "indexed": true,
          "internalType": "address",
          "name": "to",
          "type": "address"
        },
        {
          "indexed": true,
          "internalType": "uint256",
          "name": "tokenId",
          "type": "uint256"
        }
      ],
      "name": "Transfer",
      "type": "event"
    },
    {
      "inputs": [],
      "name": "Max_Chance_Value",
      "outputs": [
        {
          "internalType": "uint256",
          "name": "",
          "type": "uint256"
        }
      ],
      "stateMutability": "view",
      "type": "function"
    },
    {
      "inputs": [
        {
          "internalType": "address",
          "name": "to",
          "type": "address"
        },
        {
          "internalType": "uint256",
          "name": "tokenId",
          "type": "uint256"
        }
      ],
      "name": "approve",
      "outputs": [],
      "stateMutability": "nonpayable",
      "type": "function"
    },
    {
      "inputs": [
        {
          "internalType": "address",
          "name": "owner",
          "type": "address"
        }
      ],
      "name": "balanceOf",
      "outputs": [
        {
          "internalType": "uint256",
          "name": "",
          "type": "uint256"
        }
      ],
      "stateMutability": "view",
      "type": "function"
    },
    {
      "inputs": [
        {
          "internalType": "uint256",
          "name": "_where",
          "type": "uint256"
        }
      ],
      "name": "getAddresses",
      "outputs": [
        {
          "internalType": "address",
          "name": "",
          "type": "address"
        }
      ],
      "stateMutability": "view",
      "type": "function"
    },
    {
      "inputs": [
        {
          "internalType": "uint256",
          "name": "tokenId",
          "type": "uint256"
        }
      ],
      "name": "getApproved",
      "outputs": [
        {
          "internalType": "address",
          "name": "",
          "type": "address"
        }
      ],
      "stateMutability": "view",
      "type": "function"
    },
    {
      "inputs": [
        {
          "internalType": "uint256",
          "name": "moddedRng",
          "type": "uint256"
        }
      ],
      "name": "getBreedFromModdedRng",
      "outputs": [
        {
          "internalType": "enum RandomIpfsNft.Breed",
          "name": "",
          "type": "uint8"
        }
      ],
      "stateMutability": "view",
      "type": "function"
    },
    {
      "inputs": [],
      "name": "getChanceArray",
      "outputs": [
        {
          "internalType": "uint256[3]",
          "name": "",
          "type": "uint256[3]"
        }
      ],
      "stateMutability": "view",
      "type": "function"
    },
    {
      "inputs": [],
      "name": "getDogTokenUris",
      "outputs": [
        {
          "internalType": "string[]",
          "name": "",
          "type": "string[]"
        }
      ],
      "stateMutability": "view",
      "type": "function"
    },
    {
      "inputs": [],
      "name": "getMintFee",
      "outputs": [
        {
          "internalType": "uint256",
          "name": "",
          "type": "uint256"
        }
      ],
      "stateMutability": "view",
      "type": "function"
    },
    {
      "inputs": [],
      "name": "i_mintFee",
      "outputs": [
        {
          "internalType": "uint256",
          "name": "",
          "type": "uint256"
        }
      ],
      "stateMutability": "view",
      "type": "function"
    },
    {
      "inputs": [
        {
          "internalType": "address",
          "name": "owner",
          "type": "address"
        },
        {
          "internalType": "address",
          "name": "operator",
          "type": "address"
        }
      ],
      "name": "isApprovedForAll",
      "outputs": [
        {
          "internalType": "bool",
          "name": "",
          "type": "bool"
        }
      ],
      "stateMutability": "view",
      "type": "function"
    },
    {
      "inputs": [],
      "name": "name",
      "outputs": [
        {
          "internalType": "string",
          "name": "",
          "type": "string"
        }
      ],
      "stateMutability": "view",
      "type": "function"
    },
    {
      "inputs": [],
      "name": "owner",
      "outputs": [
        {
          "internalType": "address",
          "name": "",
          "type": "address"
        }
      ],
      "stateMutability": "view",
      "type": "function"
    },
    {
      "inputs": [
        {
          "internalType": "uint256",
          "name": "tokenId",
          "type": "uint256"
        }
      ],
      "name": "ownerOf",
      "outputs": [
        {
          "internalType": "address",
          "name": "",
          "type": "address"
        }
      ],
      "stateMutability": "view",
      "type": "function"
    },
    {
      "inputs": [
        {
          "internalType": "uint256",
          "name": "requestId",
          "type": "uint256"
        },
        {
          "internalType": "uint256[]",
          "name": "randomWords",
          "type": "uint256[]"
        }
      ],
      "name": "rawFulfillRandomWords",
      "outputs": [],
      "stateMutability": "nonpayable",
      "type": "function"
    },
    {
      "inputs": [],
      "name": "renounceOwnership",
      "outputs": [],
      "stateMutability": "nonpayable",
      "type": "function"
    },
    {
      "inputs": [],
      "name": "requestNft",
      "outputs": [
        {
          "internalType": "uint256",
          "name": "requestId",
          "type": "uint256"
        }
      ],
      "stateMutability": "payable",
      "type": "function"
    },
    {
      "inputs": [
        {
          "internalType": "uint256",
          "name": "",
          "type": "uint256"
        }
      ],
      "name": "s_requestIdToSender",
      "outputs": [
        {
          "internalType": "address",
          "name": "",
          "type": "address"
        }
      ],
      "stateMutability": "view",
      "type": "function"
    },
    {
      "inputs": [],
      "name": "s_tokenCounter",
      "outputs": [
        {
          "internalType": "uint256",
          "name": "",
          "type": "uint256"
        }
      ],
      "stateMutability": "view",
      "type": "function"
    },
    {
      "inputs": [
        {
          "internalType": "address",
          "name": "from",
          "type": "address"
        },
        {
          "internalType": "address",
          "name": "to",
          "type": "address"
        },
        {
          "internalType": "uint256",
          "name": "tokenId",
          "type": "uint256"
        }
      ],
      "name": "safeTransferFrom",
      "outputs": [],
      "stateMutability": "nonpayable",
      "type": "function"
    },
    {
      "inputs": [
        {
          "internalType": "address",
          "name": "from",
          "type": "address"
        },
        {
          "internalType": "address",
          "name": "to",
          "type": "address"
        },
        {
          "internalType": "uint256",
          "name": "tokenId",
          "type": "uint256"
        },
        {
          "internalType": "bytes",
          "name": "data",
          "type": "bytes"
        }
      ],
      "name": "safeTransferFrom",
      "outputs": [],
      "stateMutability": "nonpayable",
      "type": "function"
    },
    {
      "inputs": [
        {
          "internalType": "address",
          "name": "operator",
          "type": "address"
        },
        {
          "internalType": "bool",
          "name": "approved",
          "type": "bool"
        }
      ],
      "name": "setApprovalForAll",
      "outputs": [],
      "stateMutability": "nonpayable",
      "type": "function"
    },
    {
      "inputs": [
        {
          "internalType": "bytes4",
          "name": "interfaceId",
          "type": "bytes4"
        }
      ],
      "name": "supportsInterface",
      "outputs": [
        {
          "internalType": "bool",
          "name": "",
          "type": "bool"
        }
      ],
      "stateMutability": "view",
      "type": "function"
    },
    {
      "inputs": [],
      "name": "symbol",
      "outputs": [
        {
          "internalType": "string",
          "name": "",
          "type": "string"
        }
      ],
      "stateMutability": "view",
      "type": "function"
    },
    {
      "inputs": [
        {
          "internalType": "uint256",
          "name": "tokenId",
          "type": "uint256"
        }
      ],
      "name": "tokenURI",
      "outputs": [
        {
          "internalType": "string",
          "name": "",
          "type": "string"
        }
      ],
      "stateMutability": "view",
      "type": "function"
    },
    {
      "inputs": [
        {
          "internalType": "address",
          "name": "from",
          "type": "address"
        },
        {
          "internalType": "address",
          "name": "to",
          "type": "address"
        },
        {
          "internalType": "uint256",
          "name": "tokenId",
          "type": "uint256"
        }
      ],
      "name": "transferFrom",
      "outputs": [],
      "stateMutability": "nonpayable",
      "type": "function"
    },
    {
      "inputs": [
        {
          "internalType": "address",
          "name": "newOwner",
          "type": "address"
        }
      ],
      "name": "transferOwnership",
      "outputs": [],
      "stateMutability": "nonpayable",
      "type": "function"
    },
    {
      "inputs": [],
      "name": "withdraw",
      "outputs": [],
      "stateMutability": "payable",
      "type": "function"
    }
  ],
  "transactionHash": "0x745fe8b231dfaab0c8cf1cec70f6678bbc23b3c1e4b8ae5ff39252370e197210",
  "args": [
    "0x6168499c0cFfCaCD319c818142124B7A15E857ab",
    "6866",
    "0xd89b2bf150e3b9e13446986e571fb9cab24b13cea0a43ea20a6049a85cc807cc",
    "500000",
    [
      "ipfs://QmbpBoxkic8qmDhpAwHRmMr66GMaZfXC42DLMrZjaJnL1f",
      "ipfs://QmcWdGgHvYtGybkm7QJUVHmmcoUeeGx1YXCkKBmYe4Hked",
      "ipfs://QmY1ixmFy4cvkSbeqjQxi9wiQHdR3akdSLyBKLyMgo9TNC"
    ],
    "1"
  ],
  "numDeployments": 4,
  "solcInputHash": "56aac9ee24aab73a9dfae39f7f916732",
  "bytecode": "0x61014060405260006009556064600a553480156200001c57600080fd5b506040516200459d3803806200459d833981810160405281019062000042919062000815565b6040518060400160405280600f81526020017f52616e646f6d2049504653204e465400000000000000000000000000000000008152506040518060400160405280600481526020017f494e465400000000000000000000000000000000000000000000000000000000815250878073ffffffffffffffffffffffffffffffffffffffff1660808173ffffffffffffffffffffffffffffffffffffffff1660601b81525050508160009080519060200190620000ff929190620002a8565b50806001908051906020019062000118929190620002a8565b5050506200013b6200012f620001da60201b60201c565b620001e260201b60201c565b8573ffffffffffffffffffffffffffffffffffffffff1660a08173ffffffffffffffffffffffffffffffffffffffff1660601b815250508467ffffffffffffffff1660c08167ffffffffffffffff1660c01b815250508360e081815250508263ffffffff166101008163ffffffff1660e01b8152505081600b906003620001c492919062000339565b5080610120818152505050505050505062000935565b600033905090565b6000600760009054906101000a900473ffffffffffffffffffffffffffffffffffffffff16905081600760006101000a81548173ffffffffffffffffffffffffffffffffffffffff021916908373ffffffffffffffffffffffffffffffffffffffff1602179055508173ffffffffffffffffffffffffffffffffffffffff168173ffffffffffffffffffffffffffffffffffffffff167f8be0079c531659141344cd1fd0a4f28419497f9722a3daafe3b4186f6b6457e060405160405180910390a35050565b828054620002b690620008ff565b90600052602060002090601f016020900481019282620002da576000855562000326565b82601f10620002f557805160ff191683800117855562000326565b8280016001018555821562000326579182015b828111156200032557825182559160200191906001019062000308565b5b509050620003359190620003a0565b5090565b8280548282559060005260206000209081019282156200038d579160200282015b828111156200038c5782518290805190602001906200037b929190620002a8565b50916020019190600101906200035a565b5b5090506200039c9190620003bf565b5090565b5b80821115620003bb576000816000905550600101620003a1565b5090565b5b80821115620003e35760008181620003d99190620003e7565b50600101620003c0565b5090565b508054620003f590620008ff565b6000825580601f106200040957506200042a565b601f016020900490600052602060002090810190620004299190620003a0565b5b50565b6000604051905090565b600080fd5b600080fd5b600073ffffffffffffffffffffffffffffffffffffffff82169050919050565b60006200046e8262000441565b9050919050565b620004808162000461565b81146200048c57600080fd5b50565b600081519050620004a08162000475565b92915050565b600067ffffffffffffffff82169050919050565b620004c581620004a6565b8114620004d157600080fd5b50565b600081519050620004e581620004ba565b92915050565b6000819050919050565b6200050081620004eb565b81146200050c57600080fd5b50565b6000815190506200052081620004f5565b92915050565b600063ffffffff82169050919050565b620005418162000526565b81146200054d57600080fd5b50565b600081519050620005618162000536565b92915050565b600080fd5b6000601f19601f8301169050919050565b7f4e487b7100000000000000000000000000000000000000000000000000000000600052604160045260246000fd5b620005b7826200056c565b810181811067ffffffffffffffff82111715620005d957620005d86200057d565b5b80604052505050565b6000620005ee6200042d565b9050620005fc8282620005ac565b919050565b600067ffffffffffffffff8211156200061f576200061e6200057d565b5b602082029050919050565b600080fd5b600080fd5b600067ffffffffffffffff8211156200065257620006516200057d565b5b6200065d826200056c565b9050602081019050919050565b60005b838110156200068a5780820151818401526020810190506200066d565b838111156200069a576000848401525b50505050565b6000620006b7620006b18462000634565b620005e2565b905082815260208101848484011115620006d657620006d56200062f565b5b620006e38482856200066a565b509392505050565b600082601f83011262000703576200070262000567565b5b815162000715848260208601620006a0565b91505092915050565b6000620007356200072f8462000601565b620005e2565b905080602084028301858111156200075257620007516200062a565b5b835b81811015620007a057805167ffffffffffffffff8111156200077b576200077a62000567565b5b8086016200078a8982620006eb565b8552602085019450505060208101905062000754565b5050509392505050565b600082601f830112620007c257620007c162000567565b5b6003620007d18482856200071e565b91505092915050565b6000819050919050565b620007ef81620007da565b8114620007fb57600080fd5b50565b6000815190506200080f81620007e4565b92915050565b60008060008060008060c0878903121562000835576200083462000437565b5b60006200084589828a016200048f565b96505060206200085889828a01620004d4565b95505060406200086b89828a016200050f565b94505060606200087e89828a0162000550565b935050608087015167ffffffffffffffff811115620008a257620008a16200043c565b5b620008b089828a01620007aa565b92505060a0620008c389828a01620007fe565b9150509295509295509295565b7f4e487b7100000000000000000000000000000000000000000000000000000000600052602260045260246000fd5b600060028204905060018216806200091857607f821691505b602082108114156200092f576200092e620008d0565b5b50919050565b60805160601c60a05160601c60c05160c01c60e0516101005160e01c61012051613bf7620009a660003960008181610a5c01528181610d60015261104e01526000611128015260006110e401526000611105015260006110a801526000818161099c01526109f00152613bf76000f3fe6080604052600436106101b75760003560e01c80637a5caab3116100ec578063a51cccf31161008a578063c87b56dd11610064578063c87b56dd146105e2578063e985e9c51461061f578063ec4788cd1461065c578063f2fde38b14610699576101b7565b8063a51cccf31461055e578063aa1524911461059b578063b88d4fde146105b9576101b7565b80638da5cb5b116100c65780638da5cb5b146104a257806395d89b41146104cd578063a22cb465146104f8578063a36f573b14610521576101b7565b80637a5caab3146104215780637f501cc01461044c578063838ec5e914610477576101b7565b806323b872dd116101595780635dacf5f4116101335780635dacf5f4146103655780636352211e1461039057806370a08231146103cd578063715018a61461040a576101b7565b806323b872dd146103095780633ccfd60b1461033257806342842e0e1461033c576101b7565b8063095ea7b311610195578063095ea7b3146102615780630b21a83b1461028a5780631fe543e3146102b557806323895e79146102de576101b7565b806301ffc9a7146101bc57806306fdde03146101f9578063081812fc14610224575b600080fd5b3480156101c857600080fd5b506101e360048036038101906101de919061263c565b6106c2565b6040516101f09190612684565b60405180910390f35b34801561020557600080fd5b5061020e6107a4565b60405161021b9190612738565b60405180910390f35b34801561023057600080fd5b5061024b60048036038101906102469190612790565b610836565b60405161025891906127fe565b60405180910390f35b34801561026d57600080fd5b5061028860048036038101906102839190612845565b61087c565b005b34801561029657600080fd5b5061029f610994565b6040516102ac9190612894565b60405180910390f35b3480156102c157600080fd5b506102dc60048036038101906102d791906129f7565b61099a565b005b3480156102ea57600080fd5b506102f3610a5a565b6040516103009190612894565b60405180910390f35b34801561031557600080fd5b50610330600480360381019061032b9190612a53565b610a7e565b005b61033a610ade565b005b34801561034857600080fd5b50610363600480360381019061035e9190612a53565b610b92565b005b34801561037157600080fd5b5061037a610bb2565b6040516103879190612b51565b60405180910390f35b34801561039c57600080fd5b506103b760048036038101906103b29190612790565b610bde565b6040516103c491906127fe565b60405180910390f35b3480156103d957600080fd5b506103f460048036038101906103ef9190612b6c565b610c90565b6040516104019190612894565b60405180910390f35b34801561041657600080fd5b5061041f610d48565b005b34801561042d57600080fd5b50610436610d5c565b6040516104439190612894565b60405180910390f35b34801561045857600080fd5b50610461610d84565b60405161046e9190612894565b60405180910390f35b34801561048357600080fd5b5061048c610d8a565b6040516104999190612ca5565b60405180910390f35b3480156104ae57600080fd5b506104b7610e63565b6040516104c491906127fe565b60405180910390f35b3480156104d957600080fd5b506104e2610e8d565b6040516104ef9190612738565b60405180910390f35b34801561050457600080fd5b5061051f600480360381019061051a9190612cf3565b610f1f565b005b34801561052d57600080fd5b5061054860048036038101906105439190612790565b610f35565b60405161055591906127fe565b60405180910390f35b34801561056a57600080fd5b5061058560048036038101906105809190612790565b610f68565b6040516105929190612daa565b60405180910390f35b6105a361104a565b6040516105b09190612894565b60405180910390f35b3480156105c557600080fd5b506105e060048036038101906105db9190612e7a565b61124a565b005b3480156105ee57600080fd5b5061060960048036038101906106049190612790565b6112ac565b6040516106169190612738565b60405180910390f35b34801561062b57600080fd5b5061064660048036038101906106419190612efd565b6113bf565b6040516106539190612684565b60405180910390f35b34801561066857600080fd5b50610683600480360381019061067e9190612790565b611453565b60405161069091906127fe565b60405180910390f35b3480156106a557600080fd5b506106c060048036038101906106bb9190612b6c565b611490565b005b60007f80ac58cd000000000000000000000000000000000000000000000000000000007bffffffffffffffffffffffffffffffffffffffffffffffffffffffff1916827bffffffffffffffffffffffffffffffffffffffffffffffffffffffff1916148061078d57507f5b5e139f000000000000000000000000000000000000000000000000000000007bffffffffffffffffffffffffffffffffffffffffffffffffffffffff1916827bffffffffffffffffffffffffffffffffffffffffffffffffffffffff1916145b8061079d575061079c82611514565b5b9050919050565b6060600080546107b390612f6c565b80601f01602080910402602001604051908101604052809291908181526020018280546107df90612f6c565b801561082c5780601f106108015761010080835404028352916020019161082c565b820191906000526020600020905b81548152906001019060200180831161080f57829003601f168201915b5050505050905090565b60006108418261157e565b6004600083815260200190815260200160002060009054906101000a900473ffffffffffffffffffffffffffffffffffffffff169050919050565b600061088782610bde565b90508073ffffffffffffffffffffffffffffffffffffffff168373ffffffffffffffffffffffffffffffffffffffff1614156108f8576040517f08c379a00000000000000000000000000000000000000000000000000000000081526004016108ef90613010565b60405180910390fd5b8073ffffffffffffffffffffffffffffffffffffffff166109176115c9565b73ffffffffffffffffffffffffffffffffffffffff1614806109465750610945816109406115c9565b6113bf565b5b610985576040517f08c379a000000000000000000000000000000000000000000000000000000000815260040161097c906130a2565b60405180910390fd5b61098f83836115d1565b505050565b60095481565b7f000000000000000000000000000000000000000000000000000000000000000073ffffffffffffffffffffffffffffffffffffffff163373ffffffffffffffffffffffffffffffffffffffff1614610a4c57337f00000000000000000000000000000000000000000000000000000000000000006040517f1cf993f4000000000000000000000000000000000000000000000000000000008152600401610a439291906130c2565b60405180910390fd5b610a56828261168a565b5050565b7f000000000000000000000000000000000000000000000000000000000000000081565b610a8f610a896115c9565b8261182b565b610ace576040517f08c379a0000000000000000000000000000000000000000000000000000000008152600401610ac59061315d565b60405180910390fd5b610ad98383836118c0565b505050565b610ae6611b27565b600047905060003373ffffffffffffffffffffffffffffffffffffffff1682604051610b11906131ae565b60006040518083038185875af1925050503d8060008114610b4e576040519150601f19603f3d011682016040523d82523d6000602084013e610b53565b606091505b5050905080610b8e576040517f90b8ec1800000000000000000000000000000000000000000000000000000000815260040160405180910390fd5b5050565b610bad8383836040518060200160405280600081525061124a565b505050565b610bba61250b565b6040518060600160405280600a8152602001601e8152602001600a54815250905090565b6000806002600084815260200190815260200160002060009054906101000a900473ffffffffffffffffffffffffffffffffffffffff169050600073ffffffffffffffffffffffffffffffffffffffff168173ffffffffffffffffffffffffffffffffffffffff161415610c87576040517f08c379a0000000000000000000000000000000000000000000000000000000008152600401610c7e9061320f565b60405180910390fd5b80915050919050565b60008073ffffffffffffffffffffffffffffffffffffffff168273ffffffffffffffffffffffffffffffffffffffff161415610d01576040517f08c379a0000000000000000000000000000000000000000000000000000000008152600401610cf8906132a1565b60405180910390fd5b600360008373ffffffffffffffffffffffffffffffffffffffff1673ffffffffffffffffffffffffffffffffffffffff168152602001908152602001600020549050919050565b610d50611b27565b610d5a6000611ba5565b565b60007f0000000000000000000000000000000000000000000000000000000000000000905090565b600a5481565b6060600b805480602002602001604051908101604052809291908181526020016000905b82821015610e5a578382906000526020600020018054610dcd90612f6c565b80601f0160208091040260200160405190810160405280929190818152602001828054610df990612f6c565b8015610e465780601f10610e1b57610100808354040283529160200191610e46565b820191906000526020600020905b815481529060010190602001808311610e2957829003601f168201915b505050505081526020019060010190610dae565b50505050905090565b6000600760009054906101000a900473ffffffffffffffffffffffffffffffffffffffff16905090565b606060018054610e9c90612f6c565b80601f0160208091040260200160405190810160405280929190818152602001828054610ec890612f6c565b8015610f155780601f10610eea57610100808354040283529160200191610f15565b820191906000526020600020905b815481529060010190602001808311610ef857829003601f168201915b5050505050905090565b610f31610f2a6115c9565b8383611c6b565b5050565b60086020528060005260406000206000915054906101000a900473ffffffffffffffffffffffffffffffffffffffff1681565b600080600090506000610f79610bb2565b905060005b600381101561101257828510158015610fb85750818160038110610fa557610fa46132c1565b5b602002015183610fb5919061331f565b85105b15610fda57806002811115610fd057610fcf612d33565b5b9350505050611045565b818160038110610fed57610fec6132c1565b5b602002015183610ffd919061331f565b9250808061100a90613375565b915050610f7e565b506040517f12806c9d00000000000000000000000000000000000000000000000000000000815260040160405180910390fd5b919050565b60007f00000000000000000000000000000000000000000000000000000000000000003410156110a6576040517f393cded400000000000000000000000000000000000000000000000000000000815260040160405180910390fd5b7f000000000000000000000000000000000000000000000000000000000000000073ffffffffffffffffffffffffffffffffffffffff16635d3b1d307f00000000000000000000000000000000000000000000000000000000000000007f000000000000000000000000000000000000000000000000000000000000000060037f000000000000000000000000000000000000000000000000000000000000000060016040518663ffffffff1660e01b8152600401611169959493929190613471565b602060405180830381600087803b15801561118357600080fd5b505af1158015611197573d6000803e3d6000fd5b505050506040513d601f19601f820116820180604052508101906111bb91906134d9565b9050336008600083815260200190815260200160002060006101000a81548173ffffffffffffffffffffffffffffffffffffffff021916908373ffffffffffffffffffffffffffffffffffffffff160217905550807ff873236e6cc0ecc5be1a9a35c95ee5b8d1ac4cc7bfef0cc5060391d6cc98e26b3360405161123f91906127fe565b60405180910390a290565b61125b6112556115c9565b8361182b565b61129a576040517f08c379a00000000000000000000000000000000000000000000000000000000081526004016112919061315d565b60405180910390fd5b6112a684848484611dd8565b50505050565b60606112b78261157e565b60006006600084815260200190815260200160002080546112d790612f6c565b80601f016020809104026020016040519081016040528092919081815260200182805461130390612f6c565b80156113505780601f1061132557610100808354040283529160200191611350565b820191906000526020600020905b81548152906001019060200180831161133357829003601f168201915b505050505090506000611361611e34565b90506000815114156113775781925050506113ba565b6000825111156113ac578082604051602001611394929190613542565b604051602081830303815290604052925050506113ba565b6113b584611e4b565b925050505b919050565b6000600560008473ffffffffffffffffffffffffffffffffffffffff1673ffffffffffffffffffffffffffffffffffffffff16815260200190815260200160002060008373ffffffffffffffffffffffffffffffffffffffff1673ffffffffffffffffffffffffffffffffffffffff16815260200190815260200160002060009054906101000a900460ff16905092915050565b60006008600083815260200190815260200160002060009054906101000a900473ffffffffffffffffffffffffffffffffffffffff169050919050565b611498611b27565b600073ffffffffffffffffffffffffffffffffffffffff168173ffffffffffffffffffffffffffffffffffffffff161415611508576040517f08c379a00000000000000000000000000000000000000000000000000000000081526004016114ff906135d8565b60405180910390fd5b61151181611ba5565b50565b60007f01ffc9a7000000000000000000000000000000000000000000000000000000007bffffffffffffffffffffffffffffffffffffffffffffffffffffffff1916827bffffffffffffffffffffffffffffffffffffffffffffffffffffffff1916149050919050565b61158781611eb3565b6115c6576040517f08c379a00000000000000000000000000000000000000000000000000000000081526004016115bd9061320f565b60405180910390fd5b50565b600033905090565b816004600083815260200190815260200160002060006101000a81548173ffffffffffffffffffffffffffffffffffffffff021916908373ffffffffffffffffffffffffffffffffffffffff160217905550808273ffffffffffffffffffffffffffffffffffffffff1661164483610bde565b73ffffffffffffffffffffffffffffffffffffffff167f8c5be1e5ebec7d5bd14f71427d1e84f3dd0314c0f7b2291e5b200ac8c7c3b92560405160405180910390a45050565b60006008600084815260200190815260200160002060009054906101000a900473ffffffffffffffffffffffffffffffffffffffff169050600060095490506000600a54846000815181106116e2576116e16132c1565b5b60200260200101516116f49190613627565b9050600061170182610f68565b905060095460096000828254611717919061331f565b925050819055506117288484611f1f565b6117ea83600b83600281111561174157611740612d33565b5b81548110611752576117516132c1565b5b90600052602060002001805461176790612f6c565b80601f016020809104026020016040519081016040528092919081815260200182805461179390612f6c565b80156117e05780601f106117b5576101008083540402835291602001916117e0565b820191906000526020600020905b8154815290600101906020018083116117c357829003601f168201915b5050505050611f3d565b7f8a269f26b688e110e9cbd887d163dab35cae678fa353a0292de532c0cac1ecdc818560405161181b929190613658565b60405180910390a1505050505050565b60008061183783610bde565b90508073ffffffffffffffffffffffffffffffffffffffff168473ffffffffffffffffffffffffffffffffffffffff161480611879575061187881856113bf565b5b806118b757508373ffffffffffffffffffffffffffffffffffffffff1661189f84610836565b73ffffffffffffffffffffffffffffffffffffffff16145b91505092915050565b8273ffffffffffffffffffffffffffffffffffffffff166118e082610bde565b73ffffffffffffffffffffffffffffffffffffffff1614611936576040517f08c379a000000000000000000000000000000000000000000000000000000000815260040161192d906136f3565b60405180910390fd5b600073ffffffffffffffffffffffffffffffffffffffff168273ffffffffffffffffffffffffffffffffffffffff1614156119a6576040517f08c379a000000000000000000000000000000000000000000000000000000000815260040161199d90613785565b60405180910390fd5b6119b1838383611fb1565b6119bc6000826115d1565b6001600360008573ffffffffffffffffffffffffffffffffffffffff1673ffffffffffffffffffffffffffffffffffffffff1681526020019081526020016000206000828254611a0c91906137a5565b925050819055506001600360008473ffffffffffffffffffffffffffffffffffffffff1673ffffffffffffffffffffffffffffffffffffffff1681526020019081526020016000206000828254611a63919061331f565b92505081905550816002600083815260200190815260200160002060006101000a81548173ffffffffffffffffffffffffffffffffffffffff021916908373ffffffffffffffffffffffffffffffffffffffff160217905550808273ffffffffffffffffffffffffffffffffffffffff168473ffffffffffffffffffffffffffffffffffffffff167fddf252ad1be2c89b69c2b068fc378daa952ba7f163c4a11628f55a4df523b3ef60405160405180910390a4611b22838383611fb6565b505050565b611b2f6115c9565b73ffffffffffffffffffffffffffffffffffffffff16611b4d610e63565b73ffffffffffffffffffffffffffffffffffffffff1614611ba3576040517f08c379a0000000000000000000000000000000000000000000000000000000008152600401611b9a90613825565b60405180910390fd5b565b6000600760009054906101000a900473ffffffffffffffffffffffffffffffffffffffff16905081600760006101000a81548173ffffffffffffffffffffffffffffffffffffffff021916908373ffffffffffffffffffffffffffffffffffffffff1602179055508173ffffffffffffffffffffffffffffffffffffffff168173ffffffffffffffffffffffffffffffffffffffff167f8be0079c531659141344cd1fd0a4f28419497f9722a3daafe3b4186f6b6457e060405160405180910390a35050565b8173ffffffffffffffffffffffffffffffffffffffff168373ffffffffffffffffffffffffffffffffffffffff161415611cda576040517f08c379a0000000000000000000000000000000000000000000000000000000008152600401611cd190613891565b60405180910390fd5b80600560008573ffffffffffffffffffffffffffffffffffffffff1673ffffffffffffffffffffffffffffffffffffffff16815260200190815260200160002060008473ffffffffffffffffffffffffffffffffffffffff1673ffffffffffffffffffffffffffffffffffffffff16815260200190815260200160002060006101000a81548160ff0219169083151502179055508173ffffffffffffffffffffffffffffffffffffffff168373ffffffffffffffffffffffffffffffffffffffff167f17307eab39ab6107e8899845ad3d59bd9653f200f220920489ca2b5937696c3183604051611dcb9190612684565b60405180910390a3505050565b611de38484846118c0565b611def84848484611fbb565b611e2e576040517f08c379a0000000000000000000000000000000000000000000000000000000008152600401611e2590613923565b60405180910390fd5b50505050565b606060405180602001604052806000815250905090565b6060611e568261157e565b6000611e60611e34565b90506000815111611e805760405180602001604052806000815250611eab565b80611e8a84612152565b604051602001611e9b929190613542565b6040516020818303038152906040525b915050919050565b60008073ffffffffffffffffffffffffffffffffffffffff166002600084815260200190815260200160002060009054906101000a900473ffffffffffffffffffffffffffffffffffffffff1673ffffffffffffffffffffffffffffffffffffffff1614159050919050565b611f398282604051806020016040528060008152506122b3565b5050565b611f4682611eb3565b611f85576040517f08c379a0000000000000000000000000000000000000000000000000000000008152600401611f7c906139b5565b60405180910390fd5b80600660008481526020019081526020016000209080519060200190611fac92919061252d565b505050565b505050565b505050565b6000611fdc8473ffffffffffffffffffffffffffffffffffffffff1661230e565b15612145578373ffffffffffffffffffffffffffffffffffffffff1663150b7a026120056115c9565b8786866040518563ffffffff1660e01b81526004016120279493929190613a2a565b602060405180830381600087803b15801561204157600080fd5b505af192505050801561207257506040513d601f19601f8201168201806040525081019061206f9190613a8b565b60015b6120f5573d80600081146120a2576040519150601f19603f3d011682016040523d82523d6000602084013e6120a7565b606091505b506000815114156120ed576040517f08c379a00000000000000000000000000000000000000000000000000000000081526004016120e490613923565b60405180910390fd5b805181602001fd5b63150b7a0260e01b7bffffffffffffffffffffffffffffffffffffffffffffffffffffffff1916817bffffffffffffffffffffffffffffffffffffffffffffffffffffffff19161491505061214a565b600190505b949350505050565b6060600082141561219a576040518060400160405280600181526020017f300000000000000000000000000000000000000000000000000000000000000081525090506122ae565b600082905060005b600082146121cc5780806121b590613375565b915050600a826121c59190613ab8565b91506121a2565b60008167ffffffffffffffff8111156121e8576121e76128b4565b5b6040519080825280601f01601f19166020018201604052801561221a5781602001600182028036833780820191505090505b5090505b600085146122a75760018261223391906137a5565b9150600a856122429190613627565b603061224e919061331f565b60f81b818381518110612264576122636132c1565b5b60200101907effffffffffffffffffffffffffffffffffffffffffffffffffffffffffffff1916908160001a905350600a856122a09190613ab8565b945061221e565b8093505050505b919050565b6122bd8383612331565b6122ca6000848484611fbb565b612309576040517f08c379a000000000000000000000000000000000000000000000000000000000815260040161230090613923565b60405180910390fd5b505050565b6000808273ffffffffffffffffffffffffffffffffffffffff163b119050919050565b600073ffffffffffffffffffffffffffffffffffffffff168273ffffffffffffffffffffffffffffffffffffffff1614156123a1576040517f08c379a000000000000000000000000000000000000000000000000000000000815260040161239890613b35565b60405180910390fd5b6123aa81611eb3565b156123ea576040517f08c379a00000000000000000000000000000000000000000000000000000000081526004016123e190613ba1565b60405180910390fd5b6123f660008383611fb1565b6001600360008473ffffffffffffffffffffffffffffffffffffffff1673ffffffffffffffffffffffffffffffffffffffff1681526020019081526020016000206000828254612446919061331f565b92505081905550816002600083815260200190815260200160002060006101000a81548173ffffffffffffffffffffffffffffffffffffffff021916908373ffffffffffffffffffffffffffffffffffffffff160217905550808273ffffffffffffffffffffffffffffffffffffffff16600073ffffffffffffffffffffffffffffffffffffffff167fddf252ad1be2c89b69c2b068fc378daa952ba7f163c4a11628f55a4df523b3ef60405160405180910390a461250760008383611fb6565b5050565b6040518060600160405280600390602082028036833780820191505090505090565b82805461253990612f6c565b90600052602060002090601f01602090048101928261255b57600085556125a2565b82601f1061257457805160ff19168380011785556125a2565b828001600101855582156125a2579182015b828111156125a1578251825591602001919060010190612586565b5b5090506125af91906125b3565b5090565b5b808211156125cc5760008160009055506001016125b4565b5090565b6000604051905090565b600080fd5b600080fd5b60007fffffffff0000000000000000000000000000000000000000000000000000000082169050919050565b612619816125e4565b811461262457600080fd5b50565b60008135905061263681612610565b92915050565b600060208284031215612652576126516125da565b5b600061266084828501612627565b91505092915050565b60008115159050919050565b61267e81612669565b82525050565b60006020820190506126996000830184612675565b92915050565b600081519050919050565b600082825260208201905092915050565b60005b838110156126d95780820151818401526020810190506126be565b838111156126e8576000848401525b50505050565b6000601f19601f8301169050919050565b600061270a8261269f565b61271481856126aa565b93506127248185602086016126bb565b61272d816126ee565b840191505092915050565b6000602082019050818103600083015261275281846126ff565b905092915050565b6000819050919050565b61276d8161275a565b811461277857600080fd5b50565b60008135905061278a81612764565b92915050565b6000602082840312156127a6576127a56125da565b5b60006127b48482850161277b565b91505092915050565b600073ffffffffffffffffffffffffffffffffffffffff82169050919050565b60006127e8826127bd565b9050919050565b6127f8816127dd565b82525050565b600060208201905061281360008301846127ef565b92915050565b612822816127dd565b811461282d57600080fd5b50565b60008135905061283f81612819565b92915050565b6000806040838503121561285c5761285b6125da565b5b600061286a85828601612830565b925050602061287b8582860161277b565b9150509250929050565b61288e8161275a565b82525050565b60006020820190506128a96000830184612885565b92915050565b600080fd5b7f4e487b7100000000000000000000000000000000000000000000000000000000600052604160045260246000fd5b6128ec826126ee565b810181811067ffffffffffffffff8211171561290b5761290a6128b4565b5b80604052505050565b600061291e6125d0565b905061292a82826128e3565b919050565b600067ffffffffffffffff82111561294a576129496128b4565b5b602082029050602081019050919050565b600080fd5b600061297361296e8461292f565b612914565b905080838252602082019050602084028301858111156129965761299561295b565b5b835b818110156129bf57806129ab888261277b565b845260208401935050602081019050612998565b5050509392505050565b600082601f8301126129de576129dd6128af565b5b81356129ee848260208601612960565b91505092915050565b60008060408385031215612a0e57612a0d6125da565b5b6000612a1c8582860161277b565b925050602083013567ffffffffffffffff811115612a3d57612a3c6125df565b5b612a49858286016129c9565b9150509250929050565b600080600060608486031215612a6c57612a6b6125da565b5b6000612a7a86828701612830565b9350506020612a8b86828701612830565b9250506040612a9c8682870161277b565b9150509250925092565b600060039050919050565b600081905092915050565b6000819050919050565b612acf8161275a565b82525050565b6000612ae18383612ac6565b60208301905092915050565b6000602082019050919050565b612b0381612aa6565b612b0d8184612ab1565b9250612b1882612abc565b8060005b83811015612b49578151612b308782612ad5565b9650612b3b83612aed565b925050600181019050612b1c565b505050505050565b6000606082019050612b666000830184612afa565b92915050565b600060208284031215612b8257612b816125da565b5b6000612b9084828501612830565b91505092915050565b600081519050919050565b600082825260208201905092915050565b6000819050602082019050919050565b600082825260208201905092915050565b6000612be18261269f565b612beb8185612bc5565b9350612bfb8185602086016126bb565b612c04816126ee565b840191505092915050565b6000612c1b8383612bd6565b905092915050565b6000602082019050919050565b6000612c3b82612b99565b612c458185612ba4565b935083602082028501612c5785612bb5565b8060005b85811015612c935784840389528151612c748582612c0f565b9450612c7f83612c23565b925060208a01995050600181019050612c5b565b50829750879550505050505092915050565b60006020820190508181036000830152612cbf8184612c30565b905092915050565b612cd081612669565b8114612cdb57600080fd5b50565b600081359050612ced81612cc7565b92915050565b60008060408385031215612d0a57612d096125da565b5b6000612d1885828601612830565b9250506020612d2985828601612cde565b9150509250929050565b7f4e487b7100000000000000000000000000000000000000000000000000000000600052602160045260246000fd5b60038110612d7357612d72612d33565b5b50565b6000819050612d8482612d62565b919050565b6000612d9482612d76565b9050919050565b612da481612d89565b82525050565b6000602082019050612dbf6000830184612d9b565b92915050565b600080fd5b600067ffffffffffffffff821115612de557612de46128b4565b5b612dee826126ee565b9050602081019050919050565b82818337600083830152505050565b6000612e1d612e1884612dca565b612914565b905082815260208101848484011115612e3957612e38612dc5565b5b612e44848285612dfb565b509392505050565b600082601f830112612e6157612e606128af565b5b8135612e71848260208601612e0a565b91505092915050565b60008060008060808587031215612e9457612e936125da565b5b6000612ea287828801612830565b9450506020612eb387828801612830565b9350506040612ec48782880161277b565b925050606085013567ffffffffffffffff811115612ee557612ee46125df565b5b612ef187828801612e4c565b91505092959194509250565b60008060408385031215612f1457612f136125da565b5b6000612f2285828601612830565b9250506020612f3385828601612830565b9150509250929050565b7f4e487b7100000000000000000000000000000000000000000000000000000000600052602260045260246000fd5b60006002820490506001821680612f8457607f821691505b60208210811415612f9857612f97612f3d565b5b50919050565b7f4552433732313a20617070726f76616c20746f2063757272656e74206f776e6560008201527f7200000000000000000000000000000000000000000000000000000000000000602082015250565b6000612ffa6021836126aa565b915061300582612f9e565b604082019050919050565b6000602082019050818103600083015261302981612fed565b9050919050565b7f4552433732313a20617070726f76652063616c6c6572206973206e6f7420746f60008201527f6b656e206f776e6572206e6f7220617070726f76656420666f7220616c6c0000602082015250565b600061308c603e836126aa565b915061309782613030565b604082019050919050565b600060208201905081810360008301526130bb8161307f565b9050919050565b60006040820190506130d760008301856127ef565b6130e460208301846127ef565b9392505050565b7f4552433732313a2063616c6c6572206973206e6f7420746f6b656e206f776e6560008201527f72206e6f7220617070726f766564000000000000000000000000000000000000602082015250565b6000613147602e836126aa565b9150613152826130eb565b604082019050919050565b600060208201905081810360008301526131768161313a565b9050919050565b600081905092915050565b50565b600061319860008361317d565b91506131a382613188565b600082019050919050565b60006131b98261318b565b9150819050919050565b7f4552433732313a20696e76616c696420746f6b656e2049440000000000000000600082015250565b60006131f96018836126aa565b9150613204826131c3565b602082019050919050565b60006020820190508181036000830152613228816131ec565b9050919050565b7f4552433732313a2061646472657373207a65726f206973206e6f74206120766160008201527f6c6964206f776e65720000000000000000000000000000000000000000000000602082015250565b600061328b6029836126aa565b91506132968261322f565b604082019050919050565b600060208201905081810360008301526132ba8161327e565b9050919050565b7f4e487b7100000000000000000000000000000000000000000000000000000000600052603260045260246000fd5b7f4e487b7100000000000000000000000000000000000000000000000000000000600052601160045260246000fd5b600061332a8261275a565b91506133358361275a565b9250827fffffffffffffffffffffffffffffffffffffffffffffffffffffffffffffffff0382111561336a576133696132f0565b5b828201905092915050565b60006133808261275a565b91507fffffffffffffffffffffffffffffffffffffffffffffffffffffffffffffffff8214156133b3576133b26132f0565b5b600182019050919050565b6000819050919050565b6133d1816133be565b82525050565b600067ffffffffffffffff82169050919050565b6133f4816133d7565b82525050565b600061ffff82169050919050565b613411816133fa565b82525050565b600063ffffffff82169050919050565b61343081613417565b82525050565b6000819050919050565b600061345b613456613451846133fa565b613436565b613417565b9050919050565b61346b81613440565b82525050565b600060a08201905061348660008301886133c8565b61349360208301876133eb565b6134a06040830186613408565b6134ad6060830185613427565b6134ba6080830184613462565b9695505050505050565b6000815190506134d381612764565b92915050565b6000602082840312156134ef576134ee6125da565b5b60006134fd848285016134c4565b91505092915050565b600081905092915050565b600061351c8261269f565b6135268185613506565b93506135368185602086016126bb565b80840191505092915050565b600061354e8285613511565b915061355a8284613511565b91508190509392505050565b7f4f776e61626c653a206e6577206f776e657220697320746865207a65726f206160008201527f6464726573730000000000000000000000000000000000000000000000000000602082015250565b60006135c26026836126aa565b91506135cd82613566565b604082019050919050565b600060208201905081810360008301526135f1816135b5565b9050919050565b7f4e487b7100000000000000000000000000000000000000000000000000000000600052601260045260246000fd5b60006136328261275a565b915061363d8361275a565b92508261364d5761364c6135f8565b5b828206905092915050565b600060408201905061366d6000830185612d9b565b61367a60208301846127ef565b9392505050565b7f4552433732313a207472616e736665722066726f6d20696e636f72726563742060008201527f6f776e6572000000000000000000000000000000000000000000000000000000602082015250565b60006136dd6025836126aa565b91506136e882613681565b604082019050919050565b6000602082019050818103600083015261370c816136d0565b9050919050565b7f4552433732313a207472616e7366657220746f20746865207a65726f2061646460008201527f7265737300000000000000000000000000000000000000000000000000000000602082015250565b600061376f6024836126aa565b915061377a82613713565b604082019050919050565b6000602082019050818103600083015261379e81613762565b9050919050565b60006137b08261275a565b91506137bb8361275a565b9250828210156137ce576137cd6132f0565b5b828203905092915050565b7f4f776e61626c653a2063616c6c6572206973206e6f7420746865206f776e6572600082015250565b600061380f6020836126aa565b915061381a826137d9565b602082019050919050565b6000602082019050818103600083015261383e81613802565b9050919050565b7f4552433732313a20617070726f766520746f2063616c6c657200000000000000600082015250565b600061387b6019836126aa565b915061388682613845565b602082019050919050565b600060208201905081810360008301526138aa8161386e565b9050919050565b7f4552433732313a207472616e7366657220746f206e6f6e20455243373231526560008201527f63656976657220696d706c656d656e7465720000000000000000000000000000602082015250565b600061390d6032836126aa565b9150613918826138b1565b604082019050919050565b6000602082019050818103600083015261393c81613900565b9050919050565b7f45524337323155524953746f726167653a2055524920736574206f66206e6f6e60008201527f6578697374656e7420746f6b656e000000000000000000000000000000000000602082015250565b600061399f602e836126aa565b91506139aa82613943565b604082019050919050565b600060208201905081810360008301526139ce81613992565b9050919050565b600081519050919050565b600082825260208201905092915050565b60006139fc826139d5565b613a0681856139e0565b9350613a168185602086016126bb565b613a1f816126ee565b840191505092915050565b6000608082019050613a3f60008301876127ef565b613a4c60208301866127ef565b613a596040830185612885565b8181036060830152613a6b81846139f1565b905095945050505050565b600081519050613a8581612610565b92915050565b600060208284031215613aa157613aa06125da565b5b6000613aaf84828501613a76565b91505092915050565b6000613ac38261275a565b9150613ace8361275a565b925082613ade57613add6135f8565b5b828204905092915050565b7f4552433732313a206d696e7420746f20746865207a65726f2061646472657373600082015250565b6000613b1f6020836126aa565b9150613b2a82613ae9565b602082019050919050565b60006020820190508181036000830152613b4e81613b12565b9050919050565b7f4552433732313a20746f6b656e20616c7265616479206d696e74656400000000600082015250565b6000613b8b601c836126aa565b9150613b9682613b55565b602082019050919050565b60006020820190508181036000830152613bba81613b7e565b905091905056fea264697066735822122040e32f6187d23ef3996e9842d5c0eafc7f9a5336b4942de017556bc7b9374d5a64736f6c63430008080033",
  "devdoc": {
    "kind": "dev",
    "methods": {
      "approve(address,uint256)": {
        "details": "See {IERC721-approve}."
      },
      "balanceOf(address)": {
        "details": "See {IERC721-balanceOf}."
      },
      "getApproved(uint256)": {
        "details": "See {IERC721-getApproved}."
      },
      "isApprovedForAll(address,address)": {
        "details": "See {IERC721-isApprovedForAll}."
      },
      "name()": {
        "details": "See {IERC721Metadata-name}."
      },
      "owner()": {
        "details": "Returns the address of the current owner."
      },
      "ownerOf(uint256)": {
        "details": "See {IERC721-ownerOf}."
      },
      "renounceOwnership()": {
        "details": "Leaves the contract without owner. It will not be possible to call `onlyOwner` functions anymore. Can only be called by the current owner. NOTE: Renouncing ownership will leave the contract without an owner, thereby removing any functionality that is only available to the owner."
      },
      "safeTransferFrom(address,address,uint256)": {
        "details": "See {IERC721-safeTransferFrom}."
      },
      "safeTransferFrom(address,address,uint256,bytes)": {
        "details": "See {IERC721-safeTransferFrom}."
      },
      "setApprovalForAll(address,bool)": {
        "details": "See {IERC721-setApprovalForAll}."
      },
      "supportsInterface(bytes4)": {
        "details": "See {IERC165-supportsInterface}."
      },
      "symbol()": {
        "details": "See {IERC721Metadata-symbol}."
      },
      "tokenURI(uint256)": {
        "details": "See {IERC721Metadata-tokenURI}."
      },
      "transferFrom(address,address,uint256)": {
        "details": "See {IERC721-transferFrom}."
      },
      "transferOwnership(address)": {
        "details": "Transfers ownership of the contract to a new account (`newOwner`). Can only be called by the current owner."
      }
    },
    "version": 1
  },
  "userdoc": {
    "kind": "user",
    "methods": {},
    "version": 1
  },
  "storageLayout": {
    "storage": [
      {
        "astId": 285,
        "contract": "contracts/RandomIpfsNft.sol:RandomIpfsNft",
        "label": "_name",
        "offset": 0,
        "slot": "0",
        "type": "t_string_storage"
      },
      {
        "astId": 287,
        "contract": "contracts/RandomIpfsNft.sol:RandomIpfsNft",
        "label": "_symbol",
        "offset": 0,
        "slot": "1",
        "type": "t_string_storage"
      },
      {
        "astId": 291,
        "contract": "contracts/RandomIpfsNft.sol:RandomIpfsNft",
        "label": "_owners",
        "offset": 0,
        "slot": "2",
        "type": "t_mapping(t_uint256,t_address)"
      },
      {
        "astId": 295,
        "contract": "contracts/RandomIpfsNft.sol:RandomIpfsNft",
        "label": "_balances",
        "offset": 0,
        "slot": "3",
        "type": "t_mapping(t_address,t_uint256)"
      },
      {
        "astId": 299,
        "contract": "contracts/RandomIpfsNft.sol:RandomIpfsNft",
        "label": "_tokenApprovals",
        "offset": 0,
        "slot": "4",
        "type": "t_mapping(t_uint256,t_address)"
      },
      {
        "astId": 305,
        "contract": "contracts/RandomIpfsNft.sol:RandomIpfsNft",
        "label": "_operatorApprovals",
        "offset": 0,
        "slot": "5",
        "type": "t_mapping(t_address,t_mapping(t_address,t_bool))"
      },
      {
        "astId": 1273,
        "contract": "contracts/RandomIpfsNft.sol:RandomIpfsNft",
        "label": "_tokenURIs",
        "offset": 0,
        "slot": "6",
        "type": "t_mapping(t_uint256,t_string_storage)"
      },
      {
        "astId": 154,
        "contract": "contracts/RandomIpfsNft.sol:RandomIpfsNft",
        "label": "_owner",
        "offset": 0,
        "slot": "7",
        "type": "t_address"
      },
      {
        "astId": 2033,
        "contract": "contracts/RandomIpfsNft.sol:RandomIpfsNft",
        "label": "s_requestIdToSender",
        "offset": 0,
        "slot": "8",
        "type": "t_mapping(t_uint256,t_address)"
      },
      {
        "astId": 2036,
        "contract": "contracts/RandomIpfsNft.sol:RandomIpfsNft",
        "label": "s_tokenCounter",
        "offset": 0,
        "slot": "9",
        "type": "t_uint256"
      },
      {
        "astId": 2039,
        "contract": "contracts/RandomIpfsNft.sol:RandomIpfsNft",
        "label": "Max_Chance_Value",
        "offset": 0,
        "slot": "10",
        "type": "t_uint256"
      },
      {
        "astId": 2042,
        "contract": "contracts/RandomIpfsNft.sol:RandomIpfsNft",
        "label": "s_dogTokenUris",
        "offset": 0,
        "slot": "11",
        "type": "t_array(t_string_storage)dyn_storage"
      }
    ],
    "types": {
      "t_address": {
        "encoding": "inplace",
        "label": "address",
        "numberOfBytes": "20"
      },
      "t_array(t_string_storage)dyn_storage": {
        "base": "t_string_storage",
        "encoding": "dynamic_array",
        "label": "string[]",
        "numberOfBytes": "32"
      },
      "t_bool": {
        "encoding": "inplace",
        "label": "bool",
        "numberOfBytes": "1"
      },
      "t_mapping(t_address,t_bool)": {
        "encoding": "mapping",
        "key": "t_address",
        "label": "mapping(address => bool)",
        "numberOfBytes": "32",
        "value": "t_bool"
      },
      "t_mapping(t_address,t_mapping(t_address,t_bool))": {
        "encoding": "mapping",
        "key": "t_address",
        "label": "mapping(address => mapping(address => bool))",
        "numberOfBytes": "32",
        "value": "t_mapping(t_address,t_bool)"
      },
      "t_mapping(t_address,t_uint256)": {
        "encoding": "mapping",
        "key": "t_address",
        "label": "mapping(address => uint256)",
        "numberOfBytes": "32",
        "value": "t_uint256"
      },
      "t_mapping(t_uint256,t_address)": {
        "encoding": "mapping",
        "key": "t_uint256",
        "label": "mapping(uint256 => address)",
        "numberOfBytes": "32",
        "value": "t_address"
      },
      "t_mapping(t_uint256,t_string_storage)": {
        "encoding": "mapping",
        "key": "t_uint256",
        "label": "mapping(uint256 => string)",
        "numberOfBytes": "32",
        "value": "t_string_storage"
      },
      "t_string_storage": {
        "encoding": "bytes",
        "label": "string",
        "numberOfBytes": "32"
      },
      "t_uint256": {
        "encoding": "inplace",
        "label": "uint256",
        "numberOfBytes": "32"
      }
    }
  }
}